{"abi":[{"type":"constructor","inputs":[],"stateMutability":"nonpayable"},{"type":"function","name":"approve","inputs":[{"name":"to","type":"address","internalType":"address"},{"name":"tokenId","type":"uint256","internalType":"uint256"}],"outputs":[],"stateMutability":"nonpayable"},{"type":"function","name":"balanceOf","inputs":[{"name":"owner","type":"address","internalType":"address"}],"outputs":[{"name":"","type":"uint256","internalType":"uint256"}],"stateMutability":"view"},{"type":"function","name":"buyLicense","inputs":[{"name":"tokenId","type":"uint256","internalType":"uint256"}],"outputs":[],"stateMutability":"payable"},{"type":"function","name":"getApproved","inputs":[{"name":"tokenId","type":"uint256","internalType":"uint256"}],"outputs":[{"name":"","type":"address","internalType":"address"}],"stateMutability":"view"},{"type":"function","name":"getLicenses","inputs":[{"name":"tokenId","type":"uint256","internalType":"uint256"}],"outputs":[{"name":"","type":"tuple[]","internalType":"struct MusifyNFT.License[]","components":[{"name":"buyer","type":"address","internalType":"address"},{"name":"purchaseDate","type":"uint256","internalType":"uint256"},{"name":"expiryDate","type":"uint256","internalType":"uint256"}]}],"stateMutability":"view"},{"type":"function","name":"isApprovedForAll","inputs":[{"name":"owner","type":"address","internalType":"address"},{"name":"operator","type":"address","internalType":"address"}],"outputs":[{"name":"","type":"bool","internalType":"bool"}],"stateMutability":"view"},{"type":"function","name":"mintToken","inputs":[{"name":"_tokenURI","type":"string","internalType":"string"},{"name":"_price","type":"uint256","internalType":"uint256"},{"name":"_royaltyFeeNumerator","type":"uint96","internalType":"uint96"},{"name":"_payees","type":"address[]","internalType":"address[]"},{"name":"_shares","type":"uint256[]","internalType":"uint256[]"}],"outputs":[{"name":"","type":"uint256","internalType":"uint256"}],"stateMutability":"nonpayable"},{"type":"function","name":"name","inputs":[],"outputs":[{"name":"","type":"string","internalType":"string"}],"stateMutability":"view"},{"type":"function","name":"owner","inputs":[],"outputs":[{"name":"","type":"address","internalType":"address"}],"stateMutability":"view"},{"type":"function","name":"ownerOf","inputs":[{"name":"tokenId","type":"uint256","internalType":"uint256"}],"outputs":[{"name":"","type":"address","internalType":"address"}],"stateMutability":"view"},{"type":"function","name":"renounceOwnership","inputs":[],"outputs":[],"stateMutability":"nonpayable"},{"type":"function","name":"royaltyInfo","inputs":[{"name":"tokenId","type":"uint256","internalType":"uint256"},{"name":"salePrice","type":"uint256","internalType":"uint256"}],"outputs":[{"name":"receiver","type":"address","internalType":"address"},{"name":"amount","type":"uint256","internalType":"uint256"}],"stateMutability":"view"},{"type":"function","name":"safeTransferFrom","inputs":[{"name":"from","type":"address","internalType":"address"},{"name":"to","type":"address","internalType":"address"},{"name":"tokenId","type":"uint256","internalType":"uint256"}],"outputs":[],"stateMutability":"nonpayable"},{"type":"function","name":"safeTransferFrom","inputs":[{"name":"from","type":"address","internalType":"address"},{"name":"to","type":"address","internalType":"address"},{"name":"tokenId","type":"uint256","internalType":"uint256"},{"name":"data","type":"bytes","internalType":"bytes"}],"outputs":[],"stateMutability":"nonpayable"},{"type":"function","name":"setApprovalForAll","inputs":[{"name":"operator","type":"address","internalType":"address"},{"name":"approved","type":"bool","internalType":"bool"}],"outputs":[],"stateMutability":"nonpayable"},{"type":"function","name":"supportsInterface","inputs":[{"name":"interfaceId","type":"bytes4","internalType":"bytes4"}],"outputs":[{"name":"","type":"bool","internalType":"bool"}],"stateMutability":"view"},{"type":"function","name":"symbol","inputs":[],"outputs":[{"name":"","type":"string","internalType":"string"}],"stateMutability":"view"},{"type":"function","name":"tokenLicenses","inputs":[{"name":"","type":"uint256","internalType":"uint256"},{"name":"","type":"uint256","internalType":"uint256"}],"outputs":[{"name":"buyer","type":"address","internalType":"address"},{"name":"purchaseDate","type":"uint256","internalType":"uint256"},{"name":"expiryDate","type":"uint256","internalType":"uint256"}],"stateMutability":"view"},{"type":"function","name":"tokenPrices","inputs":[{"name":"","type":"uint256","internalType":"uint256"}],"outputs":[{"name":"","type":"uint256","internalType":"uint256"}],"stateMutability":"view"},{"type":"function","name":"tokenRevenueShares","inputs":[{"name":"","type":"uint256","internalType":"uint256"},{"name":"","type":"uint256","internalType":"uint256"}],"outputs":[{"name":"payee","type":"address","internalType":"address"},{"name":"share","type":"uint256","internalType":"uint256"}],"stateMutability":"view"},{"type":"function","name":"tokenURI","inputs":[{"name":"tokenId","type":"uint256","internalType":"uint256"}],"outputs":[{"name":"","type":"string","internalType":"string"}],"stateMutability":"view"},{"type":"function","name":"transferFrom","inputs":[{"name":"from","type":"address","internalType":"address"},{"name":"to","type":"address","internalType":"address"},{"name":"tokenId","type":"uint256","internalType":"uint256"}],"outputs":[],"stateMutability":"nonpayable"},{"type":"function","name":"transferOwnership","inputs":[{"name":"newOwner","type":"address","internalType":"address"}],"outputs":[],"stateMutability":"nonpayable"},{"type":"event","name":"Approval","inputs":[{"name":"owner","type":"address","indexed":true,"internalType":"address"},{"name":"approved","type":"address","indexed":true,"internalType":"address"},{"name":"tokenId","type":"uint256","indexed":true,"internalType":"uint256"}],"anonymous":false},{"type":"event","name":"ApprovalForAll","inputs":[{"name":"owner","type":"address","indexed":true,"internalType":"address"},{"name":"operator","type":"address","indexed":true,"internalType":"address"},{"name":"approved","type":"bool","indexed":false,"internalType":"bool"}],"anonymous":false},{"type":"event","name":"BatchMetadataUpdate","inputs":[{"name":"_fromTokenId","type":"uint256","indexed":false,"internalType":"uint256"},{"name":"_toTokenId","type":"uint256","indexed":false,"internalType":"uint256"}],"anonymous":false},{"type":"event","name":"LicensePurchased","inputs":[{"name":"tokenId","type":"uint256","indexed":true,"internalType":"uint256"},{"name":"buyer","type":"address","indexed":true,"internalType":"address"},{"name":"expiryDate","type":"uint256","indexed":false,"internalType":"uint256"}],"anonymous":false},{"type":"event","name":"MetadataUpdate","inputs":[{"name":"_tokenId","type":"uint256","indexed":false,"internalType":"uint256"}],"anonymous":false},{"type":"event","name":"NftMinted","inputs":[{"name":"tokenId","type":"uint256","indexed":true,"internalType":"uint256"},{"name":"tokenURI","type":"string","indexed":false,"internalType":"string"},{"name":"creator","type":"address","indexed":true,"internalType":"address"},{"name":"price","type":"uint256","indexed":false,"internalType":"uint256"}],"anonymous":false},{"type":"event","name":"OwnershipTransferred","inputs":[{"name":"previousOwner","type":"address","indexed":true,"internalType":"address"},{"name":"newOwner","type":"address","indexed":true,"internalType":"address"}],"anonymous":false},{"type":"event","name":"Transfer","inputs":[{"name":"from","type":"address","indexed":true,"internalType":"address"},{"name":"to","type":"address","indexed":true,"internalType":"address"},{"name":"tokenId","type":"uint256","indexed":true,"internalType":"uint256"}],"anonymous":false},{"type":"error","name":"ERC2981InvalidDefaultRoyalty","inputs":[{"name":"numerator","type":"uint256","internalType":"uint256"},{"name":"denominator","type":"uint256","internalType":"uint256"}]},{"type":"error","name":"ERC2981InvalidDefaultRoyaltyReceiver","inputs":[{"name":"receiver","type":"address","internalType":"address"}]},{"type":"error","name":"ERC2981InvalidTokenRoyalty","inputs":[{"name":"tokenId","type":"uint256","internalType":"uint256"},{"name":"numerator","type":"uint256","internalType":"uint256"},{"name":"denominator","type":"uint256","internalType":"uint256"}]},{"type":"error","name":"ERC2981InvalidTokenRoyaltyReceiver","inputs":[{"name":"tokenId","type":"uint256","internalType":"uint256"},{"name":"receiver","type":"address","internalType":"address"}]},{"type":"error","name":"ERC721IncorrectOwner","inputs":[{"name":"sender","type":"address","internalType":"address"},{"name":"tokenId","type":"uint256","internalType":"uint256"},{"name":"owner","type":"address","internalType":"address"}]},{"type":"error","name":"ERC721InsufficientApproval","inputs":[{"name":"operator","type":"address","internalType":"address"},{"name":"tokenId","type":"uint256","internalType":"uint256"}]},{"type":"error","name":"ERC721InvalidApprover","inputs":[{"name":"approver","type":"address","internalType":"address"}]},{"type":"error","name":"ERC721InvalidOperator","inputs":[{"name":"operator","type":"address","internalType":"address"}]},{"type":"error","name":"ERC721InvalidOwner","inputs":[{"name":"owner","type":"address","internalType":"address"}]},{"type":"error","name":"ERC721InvalidReceiver","inputs":[{"name":"receiver","type":"address","internalType":"address"}]},{"type":"error","name":"ERC721InvalidSender","inputs":[{"name":"sender","type":"address","internalType":"address"}]},{"type":"error","name":"ERC721NonexistentToken","inputs":[{"name":"tokenId","type":"uint256","internalType":"uint256"}]},{"type":"error","name":"OwnableInvalidOwner","inputs":[{"name":"owner","type":"address","internalType":"address"}]},{"type":"error","name":"OwnableUnauthorizedAccount","inputs":[{"name":"account","type":"address","internalType":"address"}]}],"bytecode":{"object":"0x608060405234801561000f575f5ffd5b50336040518060400160405280600981526020017f4d75736966794e465400000000000000000000000000000000000000000000008152506040518060400160405280600481526020017f4d4e465400000000000000000000000000000000000000000000000000000000815250815f908161008b9190610423565b50806001908161009b9190610423565b5050505f73ffffffffffffffffffffffffffffffffffffffff168173ffffffffffffffffffffffffffffffffffffffff160361010e575f6040517f1e4fbdf70000000000000000000000000000000000000000000000000000000081526004016101059190610531565b60405180910390fd5b61011d8161012360201b60201c565b5061054a565b5f60095f9054906101000a900473ffffffffffffffffffffffffffffffffffffffff1690508160095f6101000a81548173ffffffffffffffffffffffffffffffffffffffff021916908373ffffffffffffffffffffffffffffffffffffffff1602179055508173ffffffffffffffffffffffffffffffffffffffff168173ffffffffffffffffffffffffffffffffffffffff167f8be0079c531659141344cd1fd0a4f28419497f9722a3daafe3b4186f6b6457e060405160405180910390a35050565b5f81519050919050565b7f4e487b71000000000000000000000000000000000000000000000000000000005f52604160045260245ffd5b7f4e487b71000000000000000000000000000000000000000000000000000000005f52602260045260245ffd5b5f600282049050600182168061026157607f821691505b6020821081036102745761027361021d565b5b50919050565b5f819050815f5260205f209050919050565b5f6020601f8301049050919050565b5f82821b905092915050565b5f600883026102d67fffffffffffffffffffffffffffffffffffffffffffffffffffffffffffffffff8261029b565b6102e0868361029b565b95508019841693508086168417925050509392505050565b5f819050919050565b5f819050919050565b5f61032461031f61031a846102f8565b610301565b6102f8565b9050919050565b5f819050919050565b61033d8361030a565b6103516103498261032b565b8484546102a7565b825550505050565b5f5f905090565b610368610359565b610373818484610334565b505050565b5b818110156103965761038b5f82610360565b600181019050610379565b5050565b601f8211156103db576103ac8161027a565b6103b58461028c565b810160208510156103c4578190505b6103d86103d08561028c565b830182610378565b50505b505050565b5f82821c905092915050565b5f6103fb5f19846008026103e0565b1980831691505092915050565b5f61041383836103ec565b9150826002028217905092915050565b61042c826101e6565b67ffffffffffffffff811115610445576104446101f0565b5b61044f825461024a565b61045a82828561039a565b5f60209050601f83116001811461048b575f8415610479578287015190505b6104838582610408565b8655506104ea565b601f1984166104998661027a565b5f5b828110156104c05784890151825560018201915060208501945060208101905061049b565b868310156104dd57848901516104d9601f8916826103ec565b8355505b6001600288020188555050505b505050505050565b5f73ffffffffffffffffffffffffffffffffffffffff82169050919050565b5f61051b826104f2565b9050919050565b61052b81610511565b82525050565b5f6020820190506105445f830184610522565b92915050565b613ae8806105575f395ff3fe60806040526004361061013f575f3560e01c8063715018a6116100b5578063c87b56dd1161006e578063c87b56dd14610482578063cae1a69c146104be578063e349b2ff146104da578063e5afe3e614610517578063e985e9c514610553578063f2fde38b1461058f5761013f565b8063715018a61461038c5780638da5cb5b146103a257806395d89b41146103cc578063a22cb465146103f6578063a4e6d8001461041e578063b88d4fde1461045a5761013f565b806323b872dd1161010757806323b872dd1461024b5780632a55205a14610273578063312dd640146102b057806342842e0e146102ec5780636352211e1461031457806370a08231146103505761013f565b806301ffc9a71461014357806306fdde031461017f578063081812fc146101a9578063095ea7b3146101e5578063194e5b5c1461020d575b5f5ffd5b34801561014e575f5ffd5b50610169600480360381019061016491906127bc565b6105b7565b6040516101769190612801565b60405180910390f35b34801561018a575f5ffd5b506101936105c8565b6040516101a0919061288a565b60405180910390f35b3480156101b4575f5ffd5b506101cf60048036038101906101ca91906128dd565b610657565b6040516101dc9190612947565b60405180910390f35b3480156101f0575f5ffd5b5061020b6004803603810190610206919061298a565b610672565b005b348015610218575f5ffd5b50610233600480360381019061022e91906129c8565b610688565b60405161024293929190612a15565b60405180910390f35b348015610256575f5ffd5b50610271600480360381019061026c9190612a4a565b6106e7565b005b34801561027e575f5ffd5b50610299600480360381019061029491906129c8565b6107e6565b6040516102a7929190612a9a565b60405180910390f35b3480156102bb575f5ffd5b506102d660048036038101906102d19190612db2565b610908565b6040516102e39190612e7d565b60405180910390f35b3480156102f7575f5ffd5b50610312600480360381019061030d9190612a4a565b610b87565b005b34801561031f575f5ffd5b5061033a600480360381019061033591906128dd565b610ba6565b6040516103479190612947565b60405180910390f35b34801561035b575f5ffd5b5061037660048036038101906103719190612e96565b610bb7565b6040516103839190612e7d565b60405180910390f35b348015610397575f5ffd5b506103a0610c6d565b005b3480156103ad575f5ffd5b506103b6610c80565b6040516103c39190612947565b60405180910390f35b3480156103d7575f5ffd5b506103e0610ca8565b6040516103ed919061288a565b60405180910390f35b348015610401575f5ffd5b5061041c60048036038101906104179190612eeb565b610d38565b005b348015610429575f5ffd5b50610444600480360381019061043f91906128dd565b610d4e565b604051610451919061302f565b60405180910390f35b348015610465575f5ffd5b50610480600480360381019061047b91906130ed565b610e23565b005b34801561048d575f5ffd5b506104a860048036038101906104a391906128dd565b610e48565b6040516104b5919061288a565b60405180910390f35b6104d860048036038101906104d391906128dd565b610e5a565b005b3480156104e5575f5ffd5b5061050060048036038101906104fb91906129c8565b61124f565b60405161050e929190612a9a565b60405180910390f35b348015610522575f5ffd5b5061053d600480360381019061053891906128dd565b6112a8565b60405161054a9190612e7d565b60405180910390f35b34801561055e575f5ffd5b506105796004803603810190610574919061316d565b6112bd565b6040516105869190612801565b60405180910390f35b34801561059a575f5ffd5b506105b560048036038101906105b09190612e96565b61134b565b005b5f6105c1826113cf565b9050919050565b60605f80546105d6906131d8565b80601f0160208091040260200160405190810160405280929190818152602001828054610602906131d8565b801561064d5780601f106106245761010080835404028352916020019161064d565b820191905f5260205f20905b81548152906001019060200180831161063057829003601f168201915b5050505050905090565b5f61066182611448565b5061066b826114ce565b9050919050565b610684828261067f611507565b61150e565b5050565b600c602052815f5260405f2081815481106106a1575f80fd5b905f5260205f2090600302015f9150915050805f015f9054906101000a900473ffffffffffffffffffffffffffffffffffffffff16908060010154908060020154905083565b5f73ffffffffffffffffffffffffffffffffffffffff168273ffffffffffffffffffffffffffffffffffffffff1603610757575f6040517f64a0ae9200000000000000000000000000000000000000000000000000000000815260040161074e9190612947565b60405180910390fd5b5f61076a8383610765611507565b611520565b90508373ffffffffffffffffffffffffffffffffffffffff168173ffffffffffffffffffffffffffffffffffffffff16146107e0578382826040517f64283d7b0000000000000000000000000000000000000000000000000000000081526004016107d793929190613208565b60405180910390fd5b50505050565b5f5f5f60085f8681526020019081526020015f2090505f815f015f9054906101000a900473ffffffffffffffffffffffffffffffffffffffff1690505f825f0160149054906101000a90046bffffffffffffffffffffffff1690505f73ffffffffffffffffffffffffffffffffffffffff168273ffffffffffffffffffffffffffffffffffffffff16036108ba5760075f015f9054906101000a900473ffffffffffffffffffffffffffffffffffffffff16915060075f0160149054906101000a90046bffffffffffffffffffffffff1690505b5f6108c361172b565b6bffffffffffffffffffffffff16826bffffffffffffffffffffffff16886108eb919061326a565b6108f591906132d8565b9050828195509550505050509250929050565b5f815183511461094d576040517f08c379a000000000000000000000000000000000000000000000000000000000815260040161094490613378565b60405180910390fd5b5f5f90505f5f90505b83518110156109945783818151811061097257610971613396565b5b60200260200101518261098591906133c3565b91508080600101915050610956565b50606481146109d8576040517f08c379a00000000000000000000000000000000000000000000000000000000081526004016109cf90613440565b60405180910390fd5b5f600a5f8154809291906109eb9061345e565b9190505590506109fb3382611734565b610a058189611827565b86600b5f8381526020019081526020015f20819055505f5f90505b8551811015610b1c57600d5f8381526020019081526020015f206040518060400160405280888481518110610a5857610a57613396565b5b602002602001015173ffffffffffffffffffffffffffffffffffffffff168152602001878481518110610a8e57610a8d613396565b5b6020026020010151815250908060018154018082558091505060019003905f5260205f2090600202015f909190919091505f820151815f015f6101000a81548173ffffffffffffffffffffffffffffffffffffffff021916908373ffffffffffffffffffffffffffffffffffffffff1602179055506020820151816001015550508080600101915050610a20565b50610b28813388611881565b3373ffffffffffffffffffffffffffffffffffffffff16817fd6316c1a2bb7873d05d64fff5e7e96fc79b424417c4ffa5f7807c7687c0bc21e8a8a604051610b719291906134a5565b60405180910390a3809250505095945050505050565b610ba183838360405180602001604052805f815250610e23565b505050565b5f610bb082611448565b9050919050565b5f5f73ffffffffffffffffffffffffffffffffffffffff168273ffffffffffffffffffffffffffffffffffffffff1603610c28575f6040517f89c62b64000000000000000000000000000000000000000000000000000000008152600401610c1f9190612947565b60405180910390fd5b60035f8373ffffffffffffffffffffffffffffffffffffffff1673ffffffffffffffffffffffffffffffffffffffff1681526020019081526020015f20549050919050565b610c75611a30565b610c7e5f611ab7565b565b5f60095f9054906101000a900473ffffffffffffffffffffffffffffffffffffffff16905090565b606060018054610cb7906131d8565b80601f0160208091040260200160405190810160405280929190818152602001828054610ce3906131d8565b8015610d2e5780601f10610d0557610100808354040283529160200191610d2e565b820191905f5260205f20905b815481529060010190602001808311610d1157829003601f168201915b5050505050905090565b610d4a610d43611507565b8383611b7a565b5050565b6060600c5f8381526020019081526020015f20805480602002602001604051908101604052809291908181526020015f905b82821015610e18578382905f5260205f2090600302016040518060600160405290815f82015f9054906101000a900473ffffffffffffffffffffffffffffffffffffffff1673ffffffffffffffffffffffffffffffffffffffff1673ffffffffffffffffffffffffffffffffffffffff1681526020016001820154815260200160028201548152505081526020019060010190610d80565b505050509050919050565b610e2e8484846106e7565b610e42610e39611507565b85858585611ce3565b50505050565b6060610e5382611e8f565b9050919050565b5f600b5f8381526020019081526020015f2054905080341015610eb2576040517f08c379a0000000000000000000000000000000000000000000000000000000008152600401610ea99061351d565b60405180910390fd5b5f73ffffffffffffffffffffffffffffffffffffffff16610ed283610ba6565b73ffffffffffffffffffffffffffffffffffffffff1603610f28576040517f08c379a0000000000000000000000000000000000000000000000000000000008152600401610f1f90613585565b60405180910390fd5b5f600d5f8481526020019081526020015f20805480602002602001604051908101604052809291908181526020015f905b82821015610fe7578382905f5260205f2090600202016040518060400160405290815f82015f9054906101000a900473ffffffffffffffffffffffffffffffffffffffff1673ffffffffffffffffffffffffffffffffffffffff1673ffffffffffffffffffffffffffffffffffffffff16815260200160018201548152505081526020019060010190610f59565b5050505090505f3490505f5f90505b8251811015611123575f606484838151811061101557611014613396565b5b6020026020010151602001513461102c919061326a565b61103691906132d8565b90505f811115611115575f84838151811061105457611053613396565b5b60200260200101515f015173ffffffffffffffffffffffffffffffffffffffff1682604051611082906135d0565b5f6040518083038185875af1925050503d805f81146110bc576040519150601f19603f3d011682016040523d82523d5f602084013e6110c1565b606091505b5050905080611105576040517f08c379a00000000000000000000000000000000000000000000000000000000081526004016110fc9061362e565b60405180910390fd5b8184611111919061364c565b9350505b508080600101915050610ff6565b505f6301e133804261113591906133c3565b9050600c5f8681526020019081526020015f2060405180606001604052803373ffffffffffffffffffffffffffffffffffffffff16815260200142815260200183815250908060018154018082558091505060019003905f5260205f2090600302015f909190919091505f820151815f015f6101000a81548173ffffffffffffffffffffffffffffffffffffffff021916908373ffffffffffffffffffffffffffffffffffffffff160217905550602082015181600101556040820151816002015550503373ffffffffffffffffffffffffffffffffffffffff16857f3393c806682127c43571a575f4325897853625aeba0737802669e195f4520d5f836040516112409190612e7d565b60405180910390a35050505050565b600d602052815f5260405f208181548110611268575f80fd5b905f5260205f2090600202015f9150915050805f015f9054906101000a900473ffffffffffffffffffffffffffffffffffffffff16908060010154905082565b600b602052805f5260405f205f915090505481565b5f60055f8473ffffffffffffffffffffffffffffffffffffffff1673ffffffffffffffffffffffffffffffffffffffff1681526020019081526020015f205f8373ffffffffffffffffffffffffffffffffffffffff1673ffffffffffffffffffffffffffffffffffffffff1681526020019081526020015f205f9054906101000a900460ff16905092915050565b611353611a30565b5f73ffffffffffffffffffffffffffffffffffffffff168173ffffffffffffffffffffffffffffffffffffffff16036113c3575f6040517f1e4fbdf70000000000000000000000000000000000000000000000000000000081526004016113ba9190612947565b60405180910390fd5b6113cc81611ab7565b50565b5f7f2a55205a000000000000000000000000000000000000000000000000000000007bffffffffffffffffffffffffffffffffffffffffffffffffffffffff1916827bffffffffffffffffffffffffffffffffffffffffffffffffffffffff19161480611441575061144082611f9a565b5b9050919050565b5f5f61145383611ffa565b90505f73ffffffffffffffffffffffffffffffffffffffff168173ffffffffffffffffffffffffffffffffffffffff16036114c557826040517f7e2732890000000000000000000000000000000000000000000000000000000081526004016114bc9190612e7d565b60405180910390fd5b80915050919050565b5f60045f8381526020019081526020015f205f9054906101000a900473ffffffffffffffffffffffffffffffffffffffff169050919050565b5f33905090565b61151b8383836001612033565b505050565b5f5f61152b84611ffa565b90505f73ffffffffffffffffffffffffffffffffffffffff168373ffffffffffffffffffffffffffffffffffffffff161461156c5761156b8184866121f2565b5b5f73ffffffffffffffffffffffffffffffffffffffff168173ffffffffffffffffffffffffffffffffffffffff16146115f7576115ab5f855f5f612033565b600160035f8373ffffffffffffffffffffffffffffffffffffffff1673ffffffffffffffffffffffffffffffffffffffff1681526020019081526020015f205f82825403925050819055505b5f73ffffffffffffffffffffffffffffffffffffffff168573ffffffffffffffffffffffffffffffffffffffff161461167657600160035f8773ffffffffffffffffffffffffffffffffffffffff1673ffffffffffffffffffffffffffffffffffffffff1681526020019081526020015f205f82825401925050819055505b8460025f8681526020019081526020015f205f6101000a81548173ffffffffffffffffffffffffffffffffffffffff021916908373ffffffffffffffffffffffffffffffffffffffff160217905550838573ffffffffffffffffffffffffffffffffffffffff168273ffffffffffffffffffffffffffffffffffffffff167fddf252ad1be2c89b69c2b068fc378daa952ba7f163c4a11628f55a4df523b3ef60405160405180910390a4809150509392505050565b5f612710905090565b5f73ffffffffffffffffffffffffffffffffffffffff168273ffffffffffffffffffffffffffffffffffffffff16036117a4575f6040517f64a0ae9200000000000000000000000000000000000000000000000000000000815260040161179b9190612947565b60405180910390fd5b5f6117b083835f611520565b90505f73ffffffffffffffffffffffffffffffffffffffff168173ffffffffffffffffffffffffffffffffffffffff1614611822575f6040517f73c6ac6e0000000000000000000000000000000000000000000000000000000081526004016118199190612947565b60405180910390fd5b505050565b8060065f8481526020019081526020015f209081611845919061381f565b507ff8e1a15aba9398e019f0b49df1a4fde98ee17ae345cb5f6b5e2c27f5033e8ce7826040516118759190612e7d565b60405180910390a15050565b5f61188a61172b565b6bffffffffffffffffffffffff16905080826bffffffffffffffffffffffff1611156118f1578382826040517fdfd1fc1b0000000000000000000000000000000000000000000000000000000081526004016118e89392919061391e565b60405180910390fd5b5f73ffffffffffffffffffffffffffffffffffffffff168373ffffffffffffffffffffffffffffffffffffffff160361196357835f6040517f969f085200000000000000000000000000000000000000000000000000000000815260040161195a929190613953565b60405180910390fd5b60405180604001604052808473ffffffffffffffffffffffffffffffffffffffff168152602001836bffffffffffffffffffffffff1681525060085f8681526020019081526020015f205f820151815f015f6101000a81548173ffffffffffffffffffffffffffffffffffffffff021916908373ffffffffffffffffffffffffffffffffffffffff1602179055506020820151815f0160146101000a8154816bffffffffffffffffffffffff02191690836bffffffffffffffffffffffff16021790555090505050505050565b611a38611507565b73ffffffffffffffffffffffffffffffffffffffff16611a56610c80565b73ffffffffffffffffffffffffffffffffffffffff1614611ab557611a79611507565b6040517f118cdaa7000000000000000000000000000000000000000000000000000000008152600401611aac9190612947565b60405180910390fd5b565b5f60095f9054906101000a900473ffffffffffffffffffffffffffffffffffffffff1690508160095f6101000a81548173ffffffffffffffffffffffffffffffffffffffff021916908373ffffffffffffffffffffffffffffffffffffffff1602179055508173ffffffffffffffffffffffffffffffffffffffff168173ffffffffffffffffffffffffffffffffffffffff167f8be0079c531659141344cd1fd0a4f28419497f9722a3daafe3b4186f6b6457e060405160405180910390a35050565b5f73ffffffffffffffffffffffffffffffffffffffff168273ffffffffffffffffffffffffffffffffffffffff1603611bea57816040517f5b08ba18000000000000000000000000000000000000000000000000000000008152600401611be19190612947565b60405180910390fd5b8060055f8573ffffffffffffffffffffffffffffffffffffffff1673ffffffffffffffffffffffffffffffffffffffff1681526020019081526020015f205f8473ffffffffffffffffffffffffffffffffffffffff1673ffffffffffffffffffffffffffffffffffffffff1681526020019081526020015f205f6101000a81548160ff0219169083151502179055508173ffffffffffffffffffffffffffffffffffffffff168373ffffffffffffffffffffffffffffffffffffffff167f17307eab39ab6107e8899845ad3d59bd9653f200f220920489ca2b5937696c3183604051611cd69190612801565b60405180910390a3505050565b5f8373ffffffffffffffffffffffffffffffffffffffff163b1115611e88578273ffffffffffffffffffffffffffffffffffffffff1663150b7a02868685856040518563ffffffff1660e01b8152600401611d4194939291906139cc565b6020604051808303815f875af1925050508015611d7c57506040513d601f19601f82011682018060405250810190611d799190613a2a565b60015b611dfd573d805f8114611daa576040519150601f19603f3d011682016040523d82523d5f602084013e611daf565b606091505b505f815103611df557836040517f64a0ae92000000000000000000000000000000000000000000000000000000008152600401611dec9190612947565b60405180910390fd5b805160208201fd5b63150b7a0260e01b7bffffffffffffffffffffffffffffffffffffffffffffffffffffffff1916817bffffffffffffffffffffffffffffffffffffffffffffffffffffffff191614611e8657836040517f64a0ae92000000000000000000000000000000000000000000000000000000008152600401611e7d9190612947565b60405180910390fd5b505b5050505050565b6060611e9a82611448565b505f60065f8481526020019081526020015f208054611eb8906131d8565b80601f0160208091040260200160405190810160405280929190818152602001828054611ee4906131d8565b8015611f2f5780601f10611f0657610100808354040283529160200191611f2f565b820191905f5260205f20905b815481529060010190602001808311611f1257829003601f168201915b505050505090505f611f3f6122b5565b90505f815103611f53578192505050611f95565b5f82511115611f87578082604051602001611f6f929190613a8f565b60405160208183030381529060405292505050611f95565b611f90846122cb565b925050505b919050565b5f634906490660e01b7bffffffffffffffffffffffffffffffffffffffffffffffffffffffff1916827bffffffffffffffffffffffffffffffffffffffffffffffffffffffff19161480611ff35750611ff282612331565b5b9050919050565b5f60025f8381526020019081526020015f205f9054906101000a900473ffffffffffffffffffffffffffffffffffffffff169050919050565b808061206b57505f73ffffffffffffffffffffffffffffffffffffffff168273ffffffffffffffffffffffffffffffffffffffff1614155b1561219d575f61207a84611448565b90505f73ffffffffffffffffffffffffffffffffffffffff168373ffffffffffffffffffffffffffffffffffffffff16141580156120e457508273ffffffffffffffffffffffffffffffffffffffff168173ffffffffffffffffffffffffffffffffffffffff1614155b80156120f757506120f581846112bd565b155b1561213957826040517fa9fbf51f0000000000000000000000000000000000000000000000000000000081526004016121309190612947565b60405180910390fd5b811561219b57838573ffffffffffffffffffffffffffffffffffffffff168273ffffffffffffffffffffffffffffffffffffffff167f8c5be1e5ebec7d5bd14f71427d1e84f3dd0314c0f7b2291e5b200ac8c7c3b92560405160405180910390a45b505b8360045f8581526020019081526020015f205f6101000a81548173ffffffffffffffffffffffffffffffffffffffff021916908373ffffffffffffffffffffffffffffffffffffffff16021790555050505050565b6121fd838383612412565b6122b0575f73ffffffffffffffffffffffffffffffffffffffff168373ffffffffffffffffffffffffffffffffffffffff160361227157806040517f7e2732890000000000000000000000000000000000000000000000000000000081526004016122689190612e7d565b60405180910390fd5b81816040517f177e802f0000000000000000000000000000000000000000000000000000000081526004016122a7929190612a9a565b60405180910390fd5b505050565b606060405180602001604052805f815250905090565b60606122d682611448565b505f6122e06122b5565b90505f8151116122fe5760405180602001604052805f815250612329565b80612308846124d2565b604051602001612319929190613a8f565b6040516020818303038152906040525b915050919050565b5f7f80ac58cd000000000000000000000000000000000000000000000000000000007bffffffffffffffffffffffffffffffffffffffffffffffffffffffff1916827bffffffffffffffffffffffffffffffffffffffffffffffffffffffff191614806123fb57507f5b5e139f000000000000000000000000000000000000000000000000000000007bffffffffffffffffffffffffffffffffffffffffffffffffffffffff1916827bffffffffffffffffffffffffffffffffffffffffffffffffffffffff1916145b8061240b575061240a8261259c565b5b9050919050565b5f5f73ffffffffffffffffffffffffffffffffffffffff168373ffffffffffffffffffffffffffffffffffffffff16141580156124c957508273ffffffffffffffffffffffffffffffffffffffff168473ffffffffffffffffffffffffffffffffffffffff16148061248a575061248984846112bd565b5b806124c857508273ffffffffffffffffffffffffffffffffffffffff166124b0836114ce565b73ffffffffffffffffffffffffffffffffffffffff16145b5b90509392505050565b60605f60016124e084612605565b0190505f8167ffffffffffffffff8111156124fe576124fd612ac9565b5b6040519080825280601f01601f1916602001820160405280156125305781602001600182028036833780820191505090505b5090505f82602083010190505b600115612591578080600190039150507f3031323334353637383961626364656600000000000000000000000000000000600a86061a8153600a8581612586576125856132ab565b5b0494505f850361253d575b819350505050919050565b5f7f01ffc9a7000000000000000000000000000000000000000000000000000000007bffffffffffffffffffffffffffffffffffffffffffffffffffffffff1916827bffffffffffffffffffffffffffffffffffffffffffffffffffffffff1916149050919050565b5f5f5f90507a184f03e93ff9f4daa797ed6e38ed64bf6a1f0100000000000000008310612661577a184f03e93ff9f4daa797ed6e38ed64bf6a1f0100000000000000008381612657576126566132ab565b5b0492506040810190505b6d04ee2d6d415b85acef8100000000831061269e576d04ee2d6d415b85acef81000000008381612694576126936132ab565b5b0492506020810190505b662386f26fc1000083106126cd57662386f26fc1000083816126c3576126c26132ab565b5b0492506010810190505b6305f5e10083106126f6576305f5e10083816126ec576126eb6132ab565b5b0492506008810190505b612710831061271b576127108381612711576127106132ab565b5b0492506004810190505b6064831061273e5760648381612734576127336132ab565b5b0492506002810190505b600a831061274d576001810190505b80915050919050565b5f604051905090565b5f5ffd5b5f5ffd5b5f7fffffffff0000000000000000000000000000000000000000000000000000000082169050919050565b61279b81612767565b81146127a5575f5ffd5b50565b5f813590506127b681612792565b92915050565b5f602082840312156127d1576127d061275f565b5b5f6127de848285016127a8565b91505092915050565b5f8115159050919050565b6127fb816127e7565b82525050565b5f6020820190506128145f8301846127f2565b92915050565b5f81519050919050565b5f82825260208201905092915050565b8281835e5f83830152505050565b5f601f19601f8301169050919050565b5f61285c8261281a565b6128668185612824565b9350612876818560208601612834565b61287f81612842565b840191505092915050565b5f6020820190508181035f8301526128a28184612852565b905092915050565b5f819050919050565b6128bc816128aa565b81146128c6575f5ffd5b50565b5f813590506128d7816128b3565b92915050565b5f602082840312156128f2576128f161275f565b5b5f6128ff848285016128c9565b91505092915050565b5f73ffffffffffffffffffffffffffffffffffffffff82169050919050565b5f61293182612908565b9050919050565b61294181612927565b82525050565b5f60208201905061295a5f830184612938565b92915050565b61296981612927565b8114612973575f5ffd5b50565b5f8135905061298481612960565b92915050565b5f5f604083850312156129a05761299f61275f565b5b5f6129ad85828601612976565b92505060206129be858286016128c9565b9150509250929050565b5f5f604083850312156129de576129dd61275f565b5b5f6129eb858286016128c9565b92505060206129fc858286016128c9565b9150509250929050565b612a0f816128aa565b82525050565b5f606082019050612a285f830186612938565b612a356020830185612a06565b612a426040830184612a06565b949350505050565b5f5f5f60608486031215612a6157612a6061275f565b5b5f612a6e86828701612976565b9350506020612a7f86828701612976565b9250506040612a90868287016128c9565b9150509250925092565b5f604082019050612aad5f830185612938565b612aba6020830184612a06565b9392505050565b5f5ffd5b5f5ffd5b7f4e487b71000000000000000000000000000000000000000000000000000000005f52604160045260245ffd5b612aff82612842565b810181811067ffffffffffffffff82111715612b1e57612b1d612ac9565b5b80604052505050565b5f612b30612756565b9050612b3c8282612af6565b919050565b5f67ffffffffffffffff821115612b5b57612b5a612ac9565b5b612b6482612842565b9050602081019050919050565b828183375f83830152505050565b5f612b91612b8c84612b41565b612b27565b905082815260208101848484011115612bad57612bac612ac5565b5b612bb8848285612b71565b509392505050565b5f82601f830112612bd457612bd3612ac1565b5b8135612be4848260208601612b7f565b91505092915050565b5f6bffffffffffffffffffffffff82169050919050565b612c0d81612bed565b8114612c17575f5ffd5b50565b5f81359050612c2881612c04565b92915050565b5f67ffffffffffffffff821115612c4857612c47612ac9565b5b602082029050602081019050919050565b5f5ffd5b5f612c6f612c6a84612c2e565b612b27565b90508083825260208201905060208402830185811115612c9257612c91612c59565b5b835b81811015612cbb5780612ca78882612976565b845260208401935050602081019050612c94565b5050509392505050565b5f82601f830112612cd957612cd8612ac1565b5b8135612ce9848260208601612c5d565b91505092915050565b5f67ffffffffffffffff821115612d0c57612d0b612ac9565b5b602082029050602081019050919050565b5f612d2f612d2a84612cf2565b612b27565b90508083825260208201905060208402830185811115612d5257612d51612c59565b5b835b81811015612d7b5780612d6788826128c9565b845260208401935050602081019050612d54565b5050509392505050565b5f82601f830112612d9957612d98612ac1565b5b8135612da9848260208601612d1d565b91505092915050565b5f5f5f5f5f60a08688031215612dcb57612dca61275f565b5b5f86013567ffffffffffffffff811115612de857612de7612763565b5b612df488828901612bc0565b9550506020612e05888289016128c9565b9450506040612e1688828901612c1a565b935050606086013567ffffffffffffffff811115612e3757612e36612763565b5b612e4388828901612cc5565b925050608086013567ffffffffffffffff811115612e6457612e63612763565b5b612e7088828901612d85565b9150509295509295909350565b5f602082019050612e905f830184612a06565b92915050565b5f60208284031215612eab57612eaa61275f565b5b5f612eb884828501612976565b91505092915050565b612eca816127e7565b8114612ed4575f5ffd5b50565b5f81359050612ee581612ec1565b92915050565b5f5f60408385031215612f0157612f0061275f565b5b5f612f0e85828601612976565b9250506020612f1f85828601612ed7565b9150509250929050565b5f81519050919050565b5f82825260208201905092915050565b5f819050602082019050919050565b612f5b81612927565b82525050565b612f6a816128aa565b82525050565b606082015f820151612f845f850182612f52565b506020820151612f976020850182612f61565b506040820151612faa6040850182612f61565b50505050565b5f612fbb8383612f70565b60608301905092915050565b5f602082019050919050565b5f612fdd82612f29565b612fe78185612f33565b9350612ff283612f43565b805f5b838110156130225781516130098882612fb0565b975061301483612fc7565b925050600181019050612ff5565b5085935050505092915050565b5f6020820190508181035f8301526130478184612fd3565b905092915050565b5f67ffffffffffffffff82111561306957613068612ac9565b5b61307282612842565b9050602081019050919050565b5f61309161308c8461304f565b612b27565b9050828152602081018484840111156130ad576130ac612ac5565b5b6130b8848285612b71565b509392505050565b5f82601f8301126130d4576130d3612ac1565b5b81356130e484826020860161307f565b91505092915050565b5f5f5f5f608085870312156131055761310461275f565b5b5f61311287828801612976565b945050602061312387828801612976565b9350506040613134878288016128c9565b925050606085013567ffffffffffffffff81111561315557613154612763565b5b613161878288016130c0565b91505092959194509250565b5f5f604083850312156131835761318261275f565b5b5f61319085828601612976565b92505060206131a185828601612976565b9150509250929050565b7f4e487b71000000000000000000000000000000000000000000000000000000005f52602260045260245ffd5b5f60028204905060018216806131ef57607f821691505b602082108103613202576132016131ab565b5b50919050565b5f60608201905061321b5f830186612938565b6132286020830185612a06565b6132356040830184612938565b949350505050565b7f4e487b71000000000000000000000000000000000000000000000000000000005f52601160045260245ffd5b5f613274826128aa565b915061327f836128aa565b925082820261328d816128aa565b915082820484148315176132a4576132a361323d565b5b5092915050565b7f4e487b71000000000000000000000000000000000000000000000000000000005f52601260045260245ffd5b5f6132e2826128aa565b91506132ed836128aa565b9250826132fd576132fc6132ab565b5b828204905092915050565b7f50617965657320616e6420736861726573206c656e677468206d69736d6174635f8201527f6800000000000000000000000000000000000000000000000000000000000000602082015250565b5f613362602183612824565b915061336d82613308565b604082019050919050565b5f6020820190508181035f83015261338f81613356565b9050919050565b7f4e487b71000000000000000000000000000000000000000000000000000000005f52603260045260245ffd5b5f6133cd826128aa565b91506133d8836128aa565b92508282019050808211156133f0576133ef61323d565b5b92915050565b7f546f74616c207368617265206d757374206265203130300000000000000000005f82015250565b5f61342a601783612824565b9150613435826133f6565b602082019050919050565b5f6020820190508181035f8301526134578161341e565b9050919050565b5f613468826128aa565b91507fffffffffffffffffffffffffffffffffffffffffffffffffffffffffffffffff820361349a5761349961323d565b5b600182019050919050565b5f6040820190508181035f8301526134bd8185612852565b90506134cc6020830184612a06565b9392505050565b7f496e73756666696369656e74207061796d656e740000000000000000000000005f82015250565b5f613507601483612824565b9150613512826134d3565b602082019050919050565b5f6020820190508181035f830152613534816134fb565b9050919050565b7f546f6b656e20646f6573206e6f742065786973740000000000000000000000005f82015250565b5f61356f601483612824565b915061357a8261353b565b602082019050919050565b5f6020820190508181035f83015261359c81613563565b9050919050565b5f81905092915050565b50565b5f6135bb5f836135a3565b91506135c6826135ad565b5f82019050919050565b5f6135da826135b0565b9150819050919050565b7f5472616e73666572206661696c656400000000000000000000000000000000005f82015250565b5f613618600f83612824565b9150613623826135e4565b602082019050919050565b5f6020820190508181035f8301526136458161360c565b9050919050565b5f613656826128aa565b9150613661836128aa565b92508282039050818111156136795761367861323d565b5b92915050565b5f819050815f5260205f209050919050565b5f6020601f8301049050919050565b5f82821b905092915050565b5f600883026136db7fffffffffffffffffffffffffffffffffffffffffffffffffffffffffffffffff826136a0565b6136e586836136a0565b95508019841693508086168417925050509392505050565b5f819050919050565b5f61372061371b613716846128aa565b6136fd565b6128aa565b9050919050565b5f819050919050565b61373983613706565b61374d61374582613727565b8484546136ac565b825550505050565b5f5f905090565b613764613755565b61376f818484613730565b505050565b5b81811015613792576137875f8261375c565b600181019050613775565b5050565b601f8211156137d7576137a88161367f565b6137b184613691565b810160208510156137c0578190505b6137d46137cc85613691565b830182613774565b50505b505050565b5f82821c905092915050565b5f6137f75f19846008026137dc565b1980831691505092915050565b5f61380f83836137e8565b9150826002028217905092915050565b6138288261281a565b67ffffffffffffffff81111561384157613840612ac9565b5b61384b82546131d8565b613856828285613796565b5f60209050601f831160018114613887575f8415613875578287015190505b61387f8582613804565b8655506138e6565b601f1984166138958661367f565b5f5b828110156138bc57848901518255600182019150602085019450602081019050613897565b868310156138d957848901516138d5601f8916826137e8565b8355505b6001600288020188555050505b505050505050565b5f6139086139036138fe84612bed565b6136fd565b6128aa565b9050919050565b613918816138ee565b82525050565b5f6060820190506139315f830186612a06565b61393e602083018561390f565b61394b6040830184612a06565b949350505050565b5f6040820190506139665f830185612a06565b6139736020830184612938565b9392505050565b5f81519050919050565b5f82825260208201905092915050565b5f61399e8261397a565b6139a88185613984565b93506139b8818560208601612834565b6139c181612842565b840191505092915050565b5f6080820190506139df5f830187612938565b6139ec6020830186612938565b6139f96040830185612a06565b8181036060830152613a0b8184613994565b905095945050505050565b5f81519050613a2481612792565b92915050565b5f60208284031215613a3f57613a3e61275f565b5b5f613a4c84828501613a16565b91505092915050565b5f81905092915050565b5f613a698261281a565b613a738185613a55565b9350613a83818560208601612834565b80840191505092915050565b5f613a9a8285613a5f565b9150613aa68284613a5f565b9150819050939250505056fea2646970667358221220676e9318529a2e4997acfeac329670b12bcbcd6d6f17efd6026b6b35c1c7342264736f6c634300081b0033","linkReferences":{}},"methodIdentifiers":{"approve(address,uint256)":"095ea7b3","balanceOf(address)":"70a08231","buyLicense(uint256)":"cae1a69c","getApproved(uint256)":"081812fc","getLicenses(uint256)":"a4e6d800","isApprovedForAll(address,address)":"e985e9c5","mintToken(string,uint256,uint96,address[],uint256[])":"312dd640","name()":"06fdde03","owner()":"8da5cb5b","ownerOf(uint256)":"6352211e","renounceOwnership()":"715018a6","royaltyInfo(uint256,uint256)":"2a55205a","safeTransferFrom(address,address,uint256)":"42842e0e","safeTransferFrom(address,address,uint256,bytes)":"b88d4fde","setApprovalForAll(address,bool)":"a22cb465","supportsInterface(bytes4)":"01ffc9a7","symbol()":"95d89b41","tokenLicenses(uint256,uint256)":"194e5b5c","tokenPrices(uint256)":"e5afe3e6","tokenRevenueShares(uint256,uint256)":"e349b2ff","tokenURI(uint256)":"c87b56dd","transferFrom(address,address,uint256)":"23b872dd","transferOwnership(address)":"f2fde38b"},"id":21}