{"abi":[{"type":"constructor","inputs":[],"stateMutability":"nonpayable"},{"type":"function","name":"approve","inputs":[{"name":"to","type":"address","internalType":"address"},{"name":"tokenId","type":"uint256","internalType":"uint256"}],"outputs":[],"stateMutability":"nonpayable"},{"type":"function","name":"balanceOf","inputs":[{"name":"owner","type":"address","internalType":"address"}],"outputs":[{"name":"","type":"uint256","internalType":"uint256"}],"stateMutability":"view"},{"type":"function","name":"buyLicense","inputs":[{"name":"tokenId","type":"uint256","internalType":"uint256"}],"outputs":[],"stateMutability":"payable"},{"type":"function","name":"getApproved","inputs":[{"name":"tokenId","type":"uint256","internalType":"uint256"}],"outputs":[{"name":"","type":"address","internalType":"address"}],"stateMutability":"view"},{"type":"function","name":"getLicenses","inputs":[{"name":"tokenId","type":"uint256","internalType":"uint256"}],"outputs":[{"name":"","type":"tuple[]","internalType":"struct MusifyNFT.License[]","components":[{"name":"buyer","type":"address","internalType":"address"},{"name":"purchaseDate","type":"uint256","internalType":"uint256"},{"name":"expiryDate","type":"uint256","internalType":"uint256"}]}],"stateMutability":"view"},{"type":"function","name":"isApprovedForAll","inputs":[{"name":"owner","type":"address","internalType":"address"},{"name":"operator","type":"address","internalType":"address"}],"outputs":[{"name":"","type":"bool","internalType":"bool"}],"stateMutability":"view"},{"type":"function","name":"mintToken","inputs":[{"name":"_tokenURI","type":"string","internalType":"string"},{"name":"_price","type":"uint256","internalType":"uint256"},{"name":"_royaltyFeeNumerator","type":"uint96","internalType":"uint96"},{"name":"_payees","type":"address[]","internalType":"address[]"},{"name":"_shares","type":"uint256[]","internalType":"uint256[]"}],"outputs":[{"name":"","type":"uint256","internalType":"uint256"}],"stateMutability":"nonpayable"},{"type":"function","name":"name","inputs":[],"outputs":[{"name":"","type":"string","internalType":"string"}],"stateMutability":"view"},{"type":"function","name":"owner","inputs":[],"outputs":[{"name":"","type":"address","internalType":"address"}],"stateMutability":"view"},{"type":"function","name":"ownerOf","inputs":[{"name":"tokenId","type":"uint256","internalType":"uint256"}],"outputs":[{"name":"","type":"address","internalType":"address"}],"stateMutability":"view"},{"type":"function","name":"renounceOwnership","inputs":[],"outputs":[],"stateMutability":"nonpayable"},{"type":"function","name":"royaltyInfo","inputs":[{"name":"tokenId","type":"uint256","internalType":"uint256"},{"name":"salePrice","type":"uint256","internalType":"uint256"}],"outputs":[{"name":"receiver","type":"address","internalType":"address"},{"name":"amount","type":"uint256","internalType":"uint256"}],"stateMutability":"view"},{"type":"function","name":"safeTransferFrom","inputs":[{"name":"from","type":"address","internalType":"address"},{"name":"to","type":"address","internalType":"address"},{"name":"tokenId","type":"uint256","internalType":"uint256"}],"outputs":[],"stateMutability":"nonpayable"},{"type":"function","name":"safeTransferFrom","inputs":[{"name":"from","type":"address","internalType":"address"},{"name":"to","type":"address","internalType":"address"},{"name":"tokenId","type":"uint256","internalType":"uint256"},{"name":"data","type":"bytes","internalType":"bytes"}],"outputs":[],"stateMutability":"nonpayable"},{"type":"function","name":"setApprovalForAll","inputs":[{"name":"operator","type":"address","internalType":"address"},{"name":"approved","type":"bool","internalType":"bool"}],"outputs":[],"stateMutability":"nonpayable"},{"type":"function","name":"supportsInterface","inputs":[{"name":"interfaceId","type":"bytes4","internalType":"bytes4"}],"outputs":[{"name":"","type":"bool","internalType":"bool"}],"stateMutability":"view"},{"type":"function","name":"symbol","inputs":[],"outputs":[{"name":"","type":"string","internalType":"string"}],"stateMutability":"view"},{"type":"function","name":"tokenLicenses","inputs":[{"name":"","type":"uint256","internalType":"uint256"},{"name":"","type":"uint256","internalType":"uint256"}],"outputs":[{"name":"buyer","type":"address","internalType":"address"},{"name":"purchaseDate","type":"uint256","internalType":"uint256"},{"name":"expiryDate","type":"uint256","internalType":"uint256"}],"stateMutability":"view"},{"type":"function","name":"tokenPrices","inputs":[{"name":"","type":"uint256","internalType":"uint256"}],"outputs":[{"name":"","type":"uint256","internalType":"uint256"}],"stateMutability":"view"},{"type":"function","name":"tokenRevenueShares","inputs":[{"name":"","type":"uint256","internalType":"uint256"},{"name":"","type":"uint256","internalType":"uint256"}],"outputs":[{"name":"payee","type":"address","internalType":"address"},{"name":"share","type":"uint256","internalType":"uint256"}],"stateMutability":"view"},{"type":"function","name":"tokenURI","inputs":[{"name":"tokenId","type":"uint256","internalType":"uint256"}],"outputs":[{"name":"","type":"string","internalType":"string"}],"stateMutability":"view"},{"type":"function","name":"transferFrom","inputs":[{"name":"from","type":"address","internalType":"address"},{"name":"to","type":"address","internalType":"address"},{"name":"tokenId","type":"uint256","internalType":"uint256"}],"outputs":[],"stateMutability":"nonpayable"},{"type":"function","name":"transferOwnership","inputs":[{"name":"newOwner","type":"address","internalType":"address"}],"outputs":[],"stateMutability":"nonpayable"},{"type":"event","name":"Approval","inputs":[{"name":"owner","type":"address","indexed":true,"internalType":"address"},{"name":"approved","type":"address","indexed":true,"internalType":"address"},{"name":"tokenId","type":"uint256","indexed":true,"internalType":"uint256"}],"anonymous":false},{"type":"event","name":"ApprovalForAll","inputs":[{"name":"owner","type":"address","indexed":true,"internalType":"address"},{"name":"operator","type":"address","indexed":true,"internalType":"address"},{"name":"approved","type":"bool","indexed":false,"internalType":"bool"}],"anonymous":false},{"type":"event","name":"BatchMetadataUpdate","inputs":[{"name":"_fromTokenId","type":"uint256","indexed":false,"internalType":"uint256"},{"name":"_toTokenId","type":"uint256","indexed":false,"internalType":"uint256"}],"anonymous":false},{"type":"event","name":"LicensePurchased","inputs":[{"name":"tokenId","type":"uint256","indexed":true,"internalType":"uint256"},{"name":"buyer","type":"address","indexed":true,"internalType":"address"},{"name":"expiryDate","type":"uint256","indexed":false,"internalType":"uint256"}],"anonymous":false},{"type":"event","name":"MetadataUpdate","inputs":[{"name":"_tokenId","type":"uint256","indexed":false,"internalType":"uint256"}],"anonymous":false},{"type":"event","name":"NftMinted","inputs":[{"name":"tokenId","type":"uint256","indexed":true,"internalType":"uint256"},{"name":"tokenURI","type":"string","indexed":false,"internalType":"string"},{"name":"creator","type":"address","indexed":true,"internalType":"address"},{"name":"price","type":"uint256","indexed":false,"internalType":"uint256"}],"anonymous":false},{"type":"event","name":"OwnershipTransferred","inputs":[{"name":"previousOwner","type":"address","indexed":true,"internalType":"address"},{"name":"newOwner","type":"address","indexed":true,"internalType":"address"}],"anonymous":false},{"type":"event","name":"Transfer","inputs":[{"name":"from","type":"address","indexed":true,"internalType":"address"},{"name":"to","type":"address","indexed":true,"internalType":"address"},{"name":"tokenId","type":"uint256","indexed":true,"internalType":"uint256"}],"anonymous":false},{"type":"error","name":"ERC2981InvalidDefaultRoyalty","inputs":[{"name":"numerator","type":"uint256","internalType":"uint256"},{"name":"denominator","type":"uint256","internalType":"uint256"}]},{"type":"error","name":"ERC2981InvalidDefaultRoyaltyReceiver","inputs":[{"name":"receiver","type":"address","internalType":"address"}]},{"type":"error","name":"ERC2981InvalidTokenRoyalty","inputs":[{"name":"tokenId","type":"uint256","internalType":"uint256"},{"name":"numerator","type":"uint256","internalType":"uint256"},{"name":"denominator","type":"uint256","internalType":"uint256"}]},{"type":"error","name":"ERC2981InvalidTokenRoyaltyReceiver","inputs":[{"name":"tokenId","type":"uint256","internalType":"uint256"},{"name":"receiver","type":"address","internalType":"address"}]},{"type":"error","name":"ERC721IncorrectOwner","inputs":[{"name":"sender","type":"address","internalType":"address"},{"name":"tokenId","type":"uint256","internalType":"uint256"},{"name":"owner","type":"address","internalType":"address"}]},{"type":"error","name":"ERC721InsufficientApproval","inputs":[{"name":"operator","type":"address","internalType":"address"},{"name":"tokenId","type":"uint256","internalType":"uint256"}]},{"type":"error","name":"ERC721InvalidApprover","inputs":[{"name":"approver","type":"address","internalType":"address"}]},{"type":"error","name":"ERC721InvalidOperator","inputs":[{"name":"operator","type":"address","internalType":"address"}]},{"type":"error","name":"ERC721InvalidOwner","inputs":[{"name":"owner","type":"address","internalType":"address"}]},{"type":"error","name":"ERC721InvalidReceiver","inputs":[{"name":"receiver","type":"address","internalType":"address"}]},{"type":"error","name":"ERC721InvalidSender","inputs":[{"name":"sender","type":"address","internalType":"address"}]},{"type":"error","name":"ERC721NonexistentToken","inputs":[{"name":"tokenId","type":"uint256","internalType":"uint256"}]},{"type":"error","name":"OwnableInvalidOwner","inputs":[{"name":"owner","type":"address","internalType":"address"}]},{"type":"error","name":"OwnableUnauthorizedAccount","inputs":[{"name":"account","type":"address","internalType":"address"}]}],"bytecode":{"object":"0x60806040523480156200001157600080fd5b50336040518060400160405280600981526020017f4d75736966794e465400000000000000000000000000000000000000000000008152506040518060400160405280600481526020017f4d4e465400000000000000000000000000000000000000000000000000000000815250816000908162000090919062000472565b508060019081620000a2919062000472565b505050600073ffffffffffffffffffffffffffffffffffffffff168173ffffffffffffffffffffffffffffffffffffffff16036200011a5760006040517f1e4fbdf70000000000000000000000000000000000000000000000000000000081526004016200011191906200059e565b60405180910390fd5b6200012b816200013260201b60201c565b50620005bb565b6000600960009054906101000a900473ffffffffffffffffffffffffffffffffffffffff16905081600960006101000a81548173ffffffffffffffffffffffffffffffffffffffff021916908373ffffffffffffffffffffffffffffffffffffffff1602179055508173ffffffffffffffffffffffffffffffffffffffff168173ffffffffffffffffffffffffffffffffffffffff167f8be0079c531659141344cd1fd0a4f28419497f9722a3daafe3b4186f6b6457e060405160405180910390a35050565b600081519050919050565b7f4e487b7100000000000000000000000000000000000000000000000000000000600052604160045260246000fd5b7f4e487b7100000000000000000000000000000000000000000000000000000000600052602260045260246000fd5b600060028204905060018216806200027a57607f821691505b60208210810362000290576200028f62000232565b5b50919050565b60008190508160005260206000209050919050565b60006020601f8301049050919050565b600082821b905092915050565b600060088302620002fa7fffffffffffffffffffffffffffffffffffffffffffffffffffffffffffffffff82620002bb565b620003068683620002bb565b95508019841693508086168417925050509392505050565b6000819050919050565b6000819050919050565b6000620003536200034d62000347846200031e565b62000328565b6200031e565b9050919050565b6000819050919050565b6200036f8362000332565b620003876200037e826200035a565b848454620002c8565b825550505050565b600090565b6200039e6200038f565b620003ab81848462000364565b505050565b5b81811015620003d357620003c760008262000394565b600181019050620003b1565b5050565b601f8211156200042257620003ec8162000296565b620003f784620002ab565b8101602085101562000407578190505b6200041f6200041685620002ab565b830182620003b0565b50505b505050565b600082821c905092915050565b6000620004476000198460080262000427565b1980831691505092915050565b600062000462838362000434565b9150826002028217905092915050565b6200047d82620001f8565b67ffffffffffffffff81111562000499576200049862000203565b5b620004a5825462000261565b620004b2828285620003d7565b600060209050601f831160018114620004ea5760008415620004d5578287015190505b620004e1858262000454565b86555062000551565b601f198416620004fa8662000296565b60005b828110156200052457848901518255600182019150602085019450602081019050620004fd565b8683101562000544578489015162000540601f89168262000434565b8355505b6001600288020188555050505b505050505050565b600073ffffffffffffffffffffffffffffffffffffffff82169050919050565b6000620005868262000559565b9050919050565b620005988162000579565b82525050565b6000602082019050620005b560008301846200058d565b92915050565b613c8d80620005cb6000396000f3fe6080604052600436106101405760003560e01c8063715018a6116100b6578063c87b56dd1161006f578063c87b56dd14610495578063cae1a69c146104d2578063e349b2ff146104ee578063e5afe3e61461052c578063e985e9c514610569578063f2fde38b146105a657610140565b8063715018a6146103995780638da5cb5b146103b057806395d89b41146103db578063a22cb46514610406578063a4e6d8001461042f578063b88d4fde1461046c57610140565b806323b872dd1161010857806323b872dd146102525780632a55205a1461027b578063312dd640146102b957806342842e0e146102f65780636352211e1461031f57806370a082311461035c57610140565b806301ffc9a71461014557806306fdde0314610182578063081812fc146101ad578063095ea7b3146101ea578063194e5b5c14610213575b600080fd5b34801561015157600080fd5b5061016c600480360381019061016791906128a8565b6105cf565b60405161017991906128f0565b60405180910390f35b34801561018e57600080fd5b506101976105e1565b6040516101a4919061299b565b60405180910390f35b3480156101b957600080fd5b506101d460048036038101906101cf91906129f3565b610673565b6040516101e19190612a61565b60405180910390f35b3480156101f657600080fd5b50610211600480360381019061020c9190612aa8565b61068f565b005b34801561021f57600080fd5b5061023a60048036038101906102359190612ae8565b6106a5565b60405161024993929190612b37565b60405180910390f35b34801561025e57600080fd5b5061027960048036038101906102749190612b6e565b61070c565b005b34801561028757600080fd5b506102a2600480360381019061029d9190612ae8565b61080e565b6040516102b0929190612bc1565b60405180910390f35b3480156102c557600080fd5b506102e060048036038101906102db9190612eee565b61093e565b6040516102ed9190612fbd565b60405180910390f35b34801561030257600080fd5b5061031d60048036038101906103189190612b6e565b610bcf565b005b34801561032b57600080fd5b50610346600480360381019061034191906129f3565b610bef565b6040516103539190612a61565b60405180910390f35b34801561036857600080fd5b50610383600480360381019061037e9190612fd8565b610c01565b6040516103909190612fbd565b60405180910390f35b3480156103a557600080fd5b506103ae610cbb565b005b3480156103bc57600080fd5b506103c5610ccf565b6040516103d29190612a61565b60405180910390f35b3480156103e757600080fd5b506103f0610cf9565b6040516103fd919061299b565b60405180910390f35b34801561041257600080fd5b5061042d60048036038101906104289190613031565b610d8b565b005b34801561043b57600080fd5b50610456600480360381019061045191906129f3565b610da1565b6040516104639190613180565b60405180910390f35b34801561047857600080fd5b50610493600480360381019061048e9190613243565b610e7d565b005b3480156104a157600080fd5b506104bc60048036038101906104b791906129f3565b610ea2565b6040516104c9919061299b565b60405180910390f35b6104ec60048036038101906104e791906129f3565b610eb4565b005b3480156104fa57600080fd5b5061051560048036038101906105109190612ae8565b6112ca565b604051610523929190612bc1565b60405180910390f35b34801561053857600080fd5b50610553600480360381019061054e91906129f3565b61132b565b6040516105609190612fbd565b60405180910390f35b34801561057557600080fd5b50610590600480360381019061058b91906132c6565b611343565b60405161059d91906128f0565b60405180910390f35b3480156105b257600080fd5b506105cd60048036038101906105c89190612fd8565b6113d7565b005b60006105da8261145d565b9050919050565b6060600080546105f090613335565b80601f016020809104026020016040519081016040528092919081815260200182805461061c90613335565b80156106695780601f1061063e57610100808354040283529160200191610669565b820191906000526020600020905b81548152906001019060200180831161064c57829003601f168201915b5050505050905090565b600061067e826114d7565b506106888261155f565b9050919050565b6106a1828261069c61159c565b6115a4565b5050565b600c60205281600052604060002081815481106106c157600080fd5b9060005260206000209060030201600091509150508060000160009054906101000a900473ffffffffffffffffffffffffffffffffffffffff16908060010154908060020154905083565b600073ffffffffffffffffffffffffffffffffffffffff168273ffffffffffffffffffffffffffffffffffffffff160361077e5760006040517f64a0ae920000000000000000000000000000000000000000000000000000000081526004016107759190612a61565b60405180910390fd5b6000610792838361078d61159c565b6115b6565b90508373ffffffffffffffffffffffffffffffffffffffff168173ffffffffffffffffffffffffffffffffffffffff1614610808578382826040517f64283d7b0000000000000000000000000000000000000000000000000000000081526004016107ff93929190613366565b60405180910390fd5b50505050565b600080600060086000868152602001908152602001600020905060008160000160009054906101000a900473ffffffffffffffffffffffffffffffffffffffff16905060008260000160149054906101000a90046bffffffffffffffffffffffff169050600073ffffffffffffffffffffffffffffffffffffffff168273ffffffffffffffffffffffffffffffffffffffff16036108ef57600760000160009054906101000a900473ffffffffffffffffffffffffffffffffffffffff169150600760000160149054906101000a90046bffffffffffffffffffffffff1690505b60006108f96117d0565b6bffffffffffffffffffffffff16826bffffffffffffffffffffffff168861092191906133cc565b61092b919061343d565b9050828195509550505050509250929050565b60008151835114610984576040517f08c379a000000000000000000000000000000000000000000000000000000000815260040161097b906134e0565b60405180910390fd5b6000805b83518110156109cc578381815181106109a4576109a3613500565b5b6020026020010151826109b7919061352f565b915080806109c490613563565b915050610988565b5060648114610a10576040517f08c379a0000000000000000000000000000000000000000000000000000000008152600401610a07906135f7565b60405180910390fd5b6000600a6000815480929190610a2590613563565b919050559050610a3533826117da565b610a3f81896118d3565b86600b60008381526020019081526020016000208190555060005b8551811015610b6457600d60008381526020019081526020016000206040518060400160405280888481518110610a9457610a93613500565b5b602002602001015173ffffffffffffffffffffffffffffffffffffffff168152602001878481518110610aca57610ac9613500565b5b6020026020010151815250908060018154018082558091505060019003906000526020600020906002020160009091909190915060008201518160000160006101000a81548173ffffffffffffffffffffffffffffffffffffffff021916908373ffffffffffffffffffffffffffffffffffffffff1602179055506020820151816001015550508080610b5c90613563565b915050610a5a565b50610b7081338861192f565b3373ffffffffffffffffffffffffffffffffffffffff16817fd6316c1a2bb7873d05d64fff5e7e96fc79b424417c4ffa5f7807c7687c0bc21e8a8a604051610bb9929190613617565b60405180910390a3809250505095945050505050565b610bea83838360405180602001604052806000815250610e7d565b505050565b6000610bfa826114d7565b9050919050565b60008073ffffffffffffffffffffffffffffffffffffffff168273ffffffffffffffffffffffffffffffffffffffff1603610c745760006040517f89c62b64000000000000000000000000000000000000000000000000000000008152600401610c6b9190612a61565b60405180910390fd5b600360008373ffffffffffffffffffffffffffffffffffffffff1673ffffffffffffffffffffffffffffffffffffffff168152602001908152602001600020549050919050565b610cc3611ae7565b610ccd6000611b6e565b565b6000600960009054906101000a900473ffffffffffffffffffffffffffffffffffffffff16905090565b606060018054610d0890613335565b80601f0160208091040260200160405190810160405280929190818152602001828054610d3490613335565b8015610d815780601f10610d5657610100808354040283529160200191610d81565b820191906000526020600020905b815481529060010190602001808311610d6457829003601f168201915b5050505050905090565b610d9d610d9661159c565b8383611c34565b5050565b6060600c6000838152602001908152602001600020805480602002602001604051908101604052809291908181526020016000905b82821015610e7257838290600052602060002090600302016040518060600160405290816000820160009054906101000a900473ffffffffffffffffffffffffffffffffffffffff1673ffffffffffffffffffffffffffffffffffffffff1673ffffffffffffffffffffffffffffffffffffffff1681526020016001820154815260200160028201548152505081526020019060010190610dd6565b505050509050919050565b610e8884848461070c565b610e9c610e9361159c565b85858585611da3565b50505050565b6060610ead82611f54565b9050919050565b6000600b600083815260200190815260200160002054905080341015610f0f576040517f08c379a0000000000000000000000000000000000000000000000000000000008152600401610f0690613693565b60405180910390fd5b600073ffffffffffffffffffffffffffffffffffffffff16610f3083610bef565b73ffffffffffffffffffffffffffffffffffffffff1603610f86576040517f08c379a0000000000000000000000000000000000000000000000000000000008152600401610f7d906136ff565b60405180910390fd5b6000600d6000848152602001908152602001600020805480602002602001604051908101604052809291908181526020016000905b8282101561104d57838290600052602060002090600202016040518060400160405290816000820160009054906101000a900473ffffffffffffffffffffffffffffffffffffffff1673ffffffffffffffffffffffffffffffffffffffff1673ffffffffffffffffffffffffffffffffffffffff16815260200160018201548152505081526020019060010190610fbb565b505050509050600034905060005b8251811015611195576000606484838151811061107b5761107a613500565b5b6020026020010151602001513461109291906133cc565b61109c919061343d565b905060008111156111815760008483815181106110bc576110bb613500565b5b60200260200101516000015173ffffffffffffffffffffffffffffffffffffffff16826040516110eb90613750565b60006040518083038185875af1925050503d8060008114611128576040519150601f19603f3d011682016040523d82523d6000602084013e61112d565b606091505b5050905080611171576040517f08c379a0000000000000000000000000000000000000000000000000000000008152600401611168906137b1565b60405180910390fd5b818461117d91906137d1565b9350505b50808061118d90613563565b91505061105b565b5060006301e13380426111a8919061352f565b9050600c600086815260200190815260200160002060405180606001604052803373ffffffffffffffffffffffffffffffffffffffff16815260200142815260200183815250908060018154018082558091505060019003906000526020600020906003020160009091909190915060008201518160000160006101000a81548173ffffffffffffffffffffffffffffffffffffffff021916908373ffffffffffffffffffffffffffffffffffffffff160217905550602082015181600101556040820151816002015550503373ffffffffffffffffffffffffffffffffffffffff16857f3393c806682127c43571a575f4325897853625aeba0737802669e195f4520d5f836040516112bb9190612fbd565b60405180910390a35050505050565b600d60205281600052604060002081815481106112e657600080fd5b9060005260206000209060020201600091509150508060000160009054906101000a900473ffffffffffffffffffffffffffffffffffffffff16908060010154905082565b600b6020528060005260406000206000915090505481565b6000600560008473ffffffffffffffffffffffffffffffffffffffff1673ffffffffffffffffffffffffffffffffffffffff16815260200190815260200160002060008373ffffffffffffffffffffffffffffffffffffffff1673ffffffffffffffffffffffffffffffffffffffff16815260200190815260200160002060009054906101000a900460ff16905092915050565b6113df611ae7565b600073ffffffffffffffffffffffffffffffffffffffff168173ffffffffffffffffffffffffffffffffffffffff16036114515760006040517f1e4fbdf70000000000000000000000000000000000000000000000000000000081526004016114489190612a61565b60405180910390fd5b61145a81611b6e565b50565b60007f2a55205a000000000000000000000000000000000000000000000000000000007bffffffffffffffffffffffffffffffffffffffffffffffffffffffff1916827bffffffffffffffffffffffffffffffffffffffffffffffffffffffff191614806114d057506114cf82612067565b5b9050919050565b6000806114e3836120c8565b9050600073ffffffffffffffffffffffffffffffffffffffff168173ffffffffffffffffffffffffffffffffffffffff160361155657826040517f7e27328900000000000000000000000000000000000000000000000000000000815260040161154d9190612fbd565b60405180910390fd5b80915050919050565b60006004600083815260200190815260200160002060009054906101000a900473ffffffffffffffffffffffffffffffffffffffff169050919050565b600033905090565b6115b18383836001612105565b505050565b6000806115c2846120c8565b9050600073ffffffffffffffffffffffffffffffffffffffff168373ffffffffffffffffffffffffffffffffffffffff1614611604576116038184866122ca565b5b600073ffffffffffffffffffffffffffffffffffffffff168173ffffffffffffffffffffffffffffffffffffffff161461169557611646600085600080612105565b6001600360008373ffffffffffffffffffffffffffffffffffffffff1673ffffffffffffffffffffffffffffffffffffffff168152602001908152602001600020600082825403925050819055505b600073ffffffffffffffffffffffffffffffffffffffff168573ffffffffffffffffffffffffffffffffffffffff1614611718576001600360008773ffffffffffffffffffffffffffffffffffffffff1673ffffffffffffffffffffffffffffffffffffffff168152602001908152602001600020600082825401925050819055505b846002600086815260200190815260200160002060006101000a81548173ffffffffffffffffffffffffffffffffffffffff021916908373ffffffffffffffffffffffffffffffffffffffff160217905550838573ffffffffffffffffffffffffffffffffffffffff168273ffffffffffffffffffffffffffffffffffffffff167fddf252ad1be2c89b69c2b068fc378daa952ba7f163c4a11628f55a4df523b3ef60405160405180910390a4809150509392505050565b6000612710905090565b600073ffffffffffffffffffffffffffffffffffffffff168273ffffffffffffffffffffffffffffffffffffffff160361184c5760006040517f64a0ae920000000000000000000000000000000000000000000000000000000081526004016118439190612a61565b60405180910390fd5b600061185a838360006115b6565b9050600073ffffffffffffffffffffffffffffffffffffffff168173ffffffffffffffffffffffffffffffffffffffff16146118ce5760006040517f73c6ac6e0000000000000000000000000000000000000000000000000000000081526004016118c59190612a61565b60405180910390fd5b505050565b806006600084815260200190815260200160002090816118f391906139b1565b507ff8e1a15aba9398e019f0b49df1a4fde98ee17ae345cb5f6b5e2c27f5033e8ce7826040516119239190612fbd565b60405180910390a15050565b60006119396117d0565b6bffffffffffffffffffffffff16905080826bffffffffffffffffffffffff1611156119a0578382826040517fdfd1fc1b00000000000000000000000000000000000000000000000000000000815260040161199793929190613ab4565b60405180910390fd5b600073ffffffffffffffffffffffffffffffffffffffff168373ffffffffffffffffffffffffffffffffffffffff1603611a14578360006040517f969f0852000000000000000000000000000000000000000000000000000000008152600401611a0b929190613aeb565b60405180910390fd5b60405180604001604052808473ffffffffffffffffffffffffffffffffffffffff168152602001836bffffffffffffffffffffffff168152506008600086815260200190815260200160002060008201518160000160006101000a81548173ffffffffffffffffffffffffffffffffffffffff021916908373ffffffffffffffffffffffffffffffffffffffff16021790555060208201518160000160146101000a8154816bffffffffffffffffffffffff02191690836bffffffffffffffffffffffff16021790555090505050505050565b611aef61159c565b73ffffffffffffffffffffffffffffffffffffffff16611b0d610ccf565b73ffffffffffffffffffffffffffffffffffffffff1614611b6c57611b3061159c565b6040517f118cdaa7000000000000000000000000000000000000000000000000000000008152600401611b639190612a61565b60405180910390fd5b565b6000600960009054906101000a900473ffffffffffffffffffffffffffffffffffffffff16905081600960006101000a81548173ffffffffffffffffffffffffffffffffffffffff021916908373ffffffffffffffffffffffffffffffffffffffff1602179055508173ffffffffffffffffffffffffffffffffffffffff168173ffffffffffffffffffffffffffffffffffffffff167f8be0079c531659141344cd1fd0a4f28419497f9722a3daafe3b4186f6b6457e060405160405180910390a35050565b600073ffffffffffffffffffffffffffffffffffffffff168273ffffffffffffffffffffffffffffffffffffffff1603611ca557816040517f5b08ba18000000000000000000000000000000000000000000000000000000008152600401611c9c9190612a61565b60405180910390fd5b80600560008573ffffffffffffffffffffffffffffffffffffffff1673ffffffffffffffffffffffffffffffffffffffff16815260200190815260200160002060008473ffffffffffffffffffffffffffffffffffffffff1673ffffffffffffffffffffffffffffffffffffffff16815260200190815260200160002060006101000a81548160ff0219169083151502179055508173ffffffffffffffffffffffffffffffffffffffff168373ffffffffffffffffffffffffffffffffffffffff167f17307eab39ab6107e8899845ad3d59bd9653f200f220920489ca2b5937696c3183604051611d9691906128f0565b60405180910390a3505050565b60008373ffffffffffffffffffffffffffffffffffffffff163b1115611f4d578273ffffffffffffffffffffffffffffffffffffffff1663150b7a02868685856040518563ffffffff1660e01b8152600401611e029493929190613b69565b6020604051808303816000875af1925050508015611e3e57506040513d601f19601f82011682018060405250810190611e3b9190613bca565b60015b611ec2573d8060008114611e6e576040519150601f19603f3d011682016040523d82523d6000602084013e611e73565b606091505b506000815103611eba57836040517f64a0ae92000000000000000000000000000000000000000000000000000000008152600401611eb19190612a61565b60405180910390fd5b805160208201fd5b63150b7a0260e01b7bffffffffffffffffffffffffffffffffffffffffffffffffffffffff1916817bffffffffffffffffffffffffffffffffffffffffffffffffffffffff191614611f4b57836040517f64a0ae92000000000000000000000000000000000000000000000000000000008152600401611f429190612a61565b60405180910390fd5b505b5050505050565b6060611f5f826114d7565b506000600660008481526020019081526020016000208054611f8090613335565b80601f0160208091040260200160405190810160405280929190818152602001828054611fac90613335565b8015611ff95780601f10611fce57610100808354040283529160200191611ff9565b820191906000526020600020905b815481529060010190602001808311611fdc57829003601f168201915b50505050509050600061200a61238e565b9050600081510361201f578192505050612062565b60008251111561205457808260405160200161203c929190613c33565b60405160208183030381529060405292505050612062565b61205d846123a5565b925050505b919050565b6000634906490660e01b7bffffffffffffffffffffffffffffffffffffffffffffffffffffffff1916827bffffffffffffffffffffffffffffffffffffffffffffffffffffffff191614806120c157506120c08261240e565b5b9050919050565b60006002600083815260200190815260200160002060009054906101000a900473ffffffffffffffffffffffffffffffffffffffff169050919050565b808061213e5750600073ffffffffffffffffffffffffffffffffffffffff168273ffffffffffffffffffffffffffffffffffffffff1614155b1561227257600061214e846114d7565b9050600073ffffffffffffffffffffffffffffffffffffffff168373ffffffffffffffffffffffffffffffffffffffff16141580156121b957508273ffffffffffffffffffffffffffffffffffffffff168173ffffffffffffffffffffffffffffffffffffffff1614155b80156121cc57506121ca8184611343565b155b1561220e57826040517fa9fbf51f0000000000000000000000000000000000000000000000000000000081526004016122059190612a61565b60405180910390fd5b811561227057838573ffffffffffffffffffffffffffffffffffffffff168273ffffffffffffffffffffffffffffffffffffffff167f8c5be1e5ebec7d5bd14f71427d1e84f3dd0314c0f7b2291e5b200ac8c7c3b92560405160405180910390a45b505b836004600085815260200190815260200160002060006101000a81548173ffffffffffffffffffffffffffffffffffffffff021916908373ffffffffffffffffffffffffffffffffffffffff16021790555050505050565b6122d58383836124f0565b61238957600073ffffffffffffffffffffffffffffffffffffffff168373ffffffffffffffffffffffffffffffffffffffff160361234a57806040517f7e2732890000000000000000000000000000000000000000000000000000000081526004016123419190612fbd565b60405180910390fd5b81816040517f177e802f000000000000000000000000000000000000000000000000000000008152600401612380929190612bc1565b60405180910390fd5b505050565b606060405180602001604052806000815250905090565b60606123b0826114d7565b5060006123bb61238e565b905060008151116123db5760405180602001604052806000815250612406565b806123e5846125b1565b6040516020016123f6929190613c33565b6040516020818303038152906040525b915050919050565b60007f80ac58cd000000000000000000000000000000000000000000000000000000007bffffffffffffffffffffffffffffffffffffffffffffffffffffffff1916827bffffffffffffffffffffffffffffffffffffffffffffffffffffffff191614806124d957507f5b5e139f000000000000000000000000000000000000000000000000000000007bffffffffffffffffffffffffffffffffffffffffffffffffffffffff1916827bffffffffffffffffffffffffffffffffffffffffffffffffffffffff1916145b806124e957506124e88261267f565b5b9050919050565b60008073ffffffffffffffffffffffffffffffffffffffff168373ffffffffffffffffffffffffffffffffffffffff16141580156125a857508273ffffffffffffffffffffffffffffffffffffffff168473ffffffffffffffffffffffffffffffffffffffff16148061256957506125688484611343565b5b806125a757508273ffffffffffffffffffffffffffffffffffffffff1661258f8361155f565b73ffffffffffffffffffffffffffffffffffffffff16145b5b90509392505050565b6060600060016125c0846126e9565b01905060008167ffffffffffffffff8111156125df576125de612bf4565b5b6040519080825280601f01601f1916602001820160405280156126115781602001600182028036833780820191505090505b509050600082602083010190505b600115612674578080600190039150507f3031323334353637383961626364656600000000000000000000000000000000600a86061a8153600a85816126685761266761340e565b5b0494506000850361261f575b819350505050919050565b60007f01ffc9a7000000000000000000000000000000000000000000000000000000007bffffffffffffffffffffffffffffffffffffffffffffffffffffffff1916827bffffffffffffffffffffffffffffffffffffffffffffffffffffffff1916149050919050565b600080600090507a184f03e93ff9f4daa797ed6e38ed64bf6a1f0100000000000000008310612747577a184f03e93ff9f4daa797ed6e38ed64bf6a1f010000000000000000838161273d5761273c61340e565b5b0492506040810190505b6d04ee2d6d415b85acef81000000008310612784576d04ee2d6d415b85acef8100000000838161277a5761277961340e565b5b0492506020810190505b662386f26fc1000083106127b357662386f26fc1000083816127a9576127a861340e565b5b0492506010810190505b6305f5e10083106127dc576305f5e10083816127d2576127d161340e565b5b0492506008810190505b61271083106128015761271083816127f7576127f661340e565b5b0492506004810190505b60648310612824576064838161281a5761281961340e565b5b0492506002810190505b600a8310612833576001810190505b80915050919050565b6000604051905090565b600080fd5b600080fd5b60007fffffffff0000000000000000000000000000000000000000000000000000000082169050919050565b61288581612850565b811461289057600080fd5b50565b6000813590506128a28161287c565b92915050565b6000602082840312156128be576128bd612846565b5b60006128cc84828501612893565b91505092915050565b60008115159050919050565b6128ea816128d5565b82525050565b600060208201905061290560008301846128e1565b92915050565b600081519050919050565b600082825260208201905092915050565b60005b8381101561294557808201518184015260208101905061292a565b60008484015250505050565b6000601f19601f8301169050919050565b600061296d8261290b565b6129778185612916565b9350612987818560208601612927565b61299081612951565b840191505092915050565b600060208201905081810360008301526129b58184612962565b905092915050565b6000819050919050565b6129d0816129bd565b81146129db57600080fd5b50565b6000813590506129ed816129c7565b92915050565b600060208284031215612a0957612a08612846565b5b6000612a17848285016129de565b91505092915050565b600073ffffffffffffffffffffffffffffffffffffffff82169050919050565b6000612a4b82612a20565b9050919050565b612a5b81612a40565b82525050565b6000602082019050612a766000830184612a52565b92915050565b612a8581612a40565b8114612a9057600080fd5b50565b600081359050612aa281612a7c565b92915050565b60008060408385031215612abf57612abe612846565b5b6000612acd85828601612a93565b9250506020612ade858286016129de565b9150509250929050565b60008060408385031215612aff57612afe612846565b5b6000612b0d858286016129de565b9250506020612b1e858286016129de565b9150509250929050565b612b31816129bd565b82525050565b6000606082019050612b4c6000830186612a52565b612b596020830185612b28565b612b666040830184612b28565b949350505050565b600080600060608486031215612b8757612b86612846565b5b6000612b9586828701612a93565b9350506020612ba686828701612a93565b9250506040612bb7868287016129de565b9150509250925092565b6000604082019050612bd66000830185612a52565b612be36020830184612b28565b9392505050565b600080fd5b600080fd5b7f4e487b7100000000000000000000000000000000000000000000000000000000600052604160045260246000fd5b612c2c82612951565b810181811067ffffffffffffffff82111715612c4b57612c4a612bf4565b5b80604052505050565b6000612c5e61283c565b9050612c6a8282612c23565b919050565b600067ffffffffffffffff821115612c8a57612c89612bf4565b5b612c9382612951565b9050602081019050919050565b82818337600083830152505050565b6000612cc2612cbd84612c6f565b612c54565b905082815260208101848484011115612cde57612cdd612bef565b5b612ce9848285612ca0565b509392505050565b600082601f830112612d0657612d05612bea565b5b8135612d16848260208601612caf565b91505092915050565b60006bffffffffffffffffffffffff82169050919050565b612d4081612d1f565b8114612d4b57600080fd5b50565b600081359050612d5d81612d37565b92915050565b600067ffffffffffffffff821115612d7e57612d7d612bf4565b5b602082029050602081019050919050565b600080fd5b6000612da7612da284612d63565b612c54565b90508083825260208201905060208402830185811115612dca57612dc9612d8f565b5b835b81811015612df35780612ddf8882612a93565b845260208401935050602081019050612dcc565b5050509392505050565b600082601f830112612e1257612e11612bea565b5b8135612e22848260208601612d94565b91505092915050565b600067ffffffffffffffff821115612e4657612e45612bf4565b5b602082029050602081019050919050565b6000612e6a612e6584612e2b565b612c54565b90508083825260208201905060208402830185811115612e8d57612e8c612d8f565b5b835b81811015612eb65780612ea288826129de565b845260208401935050602081019050612e8f565b5050509392505050565b600082601f830112612ed557612ed4612bea565b5b8135612ee5848260208601612e57565b91505092915050565b600080600080600060a08688031215612f0a57612f09612846565b5b600086013567ffffffffffffffff811115612f2857612f2761284b565b5b612f3488828901612cf1565b9550506020612f45888289016129de565b9450506040612f5688828901612d4e565b935050606086013567ffffffffffffffff811115612f7757612f7661284b565b5b612f8388828901612dfd565b925050608086013567ffffffffffffffff811115612fa457612fa361284b565b5b612fb088828901612ec0565b9150509295509295909350565b6000602082019050612fd26000830184612b28565b92915050565b600060208284031215612fee57612fed612846565b5b6000612ffc84828501612a93565b91505092915050565b61300e816128d5565b811461301957600080fd5b50565b60008135905061302b81613005565b92915050565b6000806040838503121561304857613047612846565b5b600061305685828601612a93565b92505060206130678582860161301c565b9150509250929050565b600081519050919050565b600082825260208201905092915050565b6000819050602082019050919050565b6130a681612a40565b82525050565b6130b5816129bd565b82525050565b6060820160008201516130d1600085018261309d565b5060208201516130e460208501826130ac565b5060408201516130f760408501826130ac565b50505050565b600061310983836130bb565b60608301905092915050565b6000602082019050919050565b600061312d82613071565b613137818561307c565b93506131428361308d565b8060005b8381101561317357815161315a88826130fd565b975061316583613115565b925050600181019050613146565b5085935050505092915050565b6000602082019050818103600083015261319a8184613122565b905092915050565b600067ffffffffffffffff8211156131bd576131bc612bf4565b5b6131c682612951565b9050602081019050919050565b60006131e66131e1846131a2565b612c54565b90508281526020810184848401111561320257613201612bef565b5b61320d848285612ca0565b509392505050565b600082601f83011261322a57613229612bea565b5b813561323a8482602086016131d3565b91505092915050565b6000806000806080858703121561325d5761325c612846565b5b600061326b87828801612a93565b945050602061327c87828801612a93565b935050604061328d878288016129de565b925050606085013567ffffffffffffffff8111156132ae576132ad61284b565b5b6132ba87828801613215565b91505092959194509250565b600080604083850312156132dd576132dc612846565b5b60006132eb85828601612a93565b92505060206132fc85828601612a93565b9150509250929050565b7f4e487b7100000000000000000000000000000000000000000000000000000000600052602260045260246000fd5b6000600282049050600182168061334d57607f821691505b6020821081036133605761335f613306565b5b50919050565b600060608201905061337b6000830186612a52565b6133886020830185612b28565b6133956040830184612a52565b949350505050565b7f4e487b7100000000000000000000000000000000000000000000000000000000600052601160045260246000fd5b60006133d7826129bd565b91506133e2836129bd565b92508282026133f0816129bd565b915082820484148315176134075761340661339d565b5b5092915050565b7f4e487b7100000000000000000000000000000000000000000000000000000000600052601260045260246000fd5b6000613448826129bd565b9150613453836129bd565b9250826134635761346261340e565b5b828204905092915050565b7f50617965657320616e6420736861726573206c656e677468206d69736d61746360008201527f6800000000000000000000000000000000000000000000000000000000000000602082015250565b60006134ca602183612916565b91506134d58261346e565b604082019050919050565b600060208201905081810360008301526134f9816134bd565b9050919050565b7f4e487b7100000000000000000000000000000000000000000000000000000000600052603260045260246000fd5b600061353a826129bd565b9150613545836129bd565b925082820190508082111561355d5761355c61339d565b5b92915050565b600061356e826129bd565b91507fffffffffffffffffffffffffffffffffffffffffffffffffffffffffffffffff82036135a05761359f61339d565b5b600182019050919050565b7f546f74616c207368617265206d75737420626520313030000000000000000000600082015250565b60006135e1601783612916565b91506135ec826135ab565b602082019050919050565b60006020820190508181036000830152613610816135d4565b9050919050565b600060408201905081810360008301526136318185612962565b90506136406020830184612b28565b9392505050565b7f496e73756666696369656e74207061796d656e74000000000000000000000000600082015250565b600061367d601483612916565b915061368882613647565b602082019050919050565b600060208201905081810360008301526136ac81613670565b9050919050565b7f546f6b656e20646f6573206e6f74206578697374000000000000000000000000600082015250565b60006136e9601483612916565b91506136f4826136b3565b602082019050919050565b60006020820190508181036000830152613718816136dc565b9050919050565b600081905092915050565b50565b600061373a60008361371f565b91506137458261372a565b600082019050919050565b600061375b8261372d565b9150819050919050565b7f5472616e73666572206661696c65640000000000000000000000000000000000600082015250565b600061379b600f83612916565b91506137a682613765565b602082019050919050565b600060208201905081810360008301526137ca8161378e565b9050919050565b60006137dc826129bd565b91506137e7836129bd565b92508282039050818111156137ff576137fe61339d565b5b92915050565b60008190508160005260206000209050919050565b60006020601f8301049050919050565b600082821b905092915050565b6000600883026138677fffffffffffffffffffffffffffffffffffffffffffffffffffffffffffffffff8261382a565b613871868361382a565b95508019841693508086168417925050509392505050565b6000819050919050565b60006138ae6138a96138a4846129bd565b613889565b6129bd565b9050919050565b6000819050919050565b6138c883613893565b6138dc6138d4826138b5565b848454613837565b825550505050565b600090565b6138f16138e4565b6138fc8184846138bf565b505050565b5b81811015613920576139156000826138e9565b600181019050613902565b5050565b601f8211156139655761393681613805565b61393f8461381a565b8101602085101561394e578190505b61396261395a8561381a565b830182613901565b50505b505050565b600082821c905092915050565b60006139886000198460080261396a565b1980831691505092915050565b60006139a18383613977565b9150826002028217905092915050565b6139ba8261290b565b67ffffffffffffffff8111156139d3576139d2612bf4565b5b6139dd8254613335565b6139e8828285613924565b600060209050601f831160018114613a1b5760008415613a09578287015190505b613a138582613995565b865550613a7b565b601f198416613a2986613805565b60005b82811015613a5157848901518255600182019150602085019450602081019050613a2c565b86831015613a6e5784890151613a6a601f891682613977565b8355505b6001600288020188555050505b505050505050565b6000613a9e613a99613a9484612d1f565b613889565b6129bd565b9050919050565b613aae81613a83565b82525050565b6000606082019050613ac96000830186612b28565b613ad66020830185613aa5565b613ae36040830184612b28565b949350505050565b6000604082019050613b006000830185612b28565b613b0d6020830184612a52565b9392505050565b600081519050919050565b600082825260208201905092915050565b6000613b3b82613b14565b613b458185613b1f565b9350613b55818560208601612927565b613b5e81612951565b840191505092915050565b6000608082019050613b7e6000830187612a52565b613b8b6020830186612a52565b613b986040830185612b28565b8181036060830152613baa8184613b30565b905095945050505050565b600081519050613bc48161287c565b92915050565b600060208284031215613be057613bdf612846565b5b6000613bee84828501613bb5565b91505092915050565b600081905092915050565b6000613c0d8261290b565b613c178185613bf7565b9350613c27818560208601612927565b80840191505092915050565b6000613c3f8285613c02565b9150613c4b8284613c02565b9150819050939250505056fea2646970667358221220f003410b2d9d7caec2c09c6a959642be6c449002414350b6da1c25bac3fe627f64736f6c63430008140033","linkReferences":{}},"methodIdentifiers":{"approve(address,uint256)":"095ea7b3","balanceOf(address)":"70a08231","buyLicense(uint256)":"cae1a69c","getApproved(uint256)":"081812fc","getLicenses(uint256)":"a4e6d800","isApprovedForAll(address,address)":"e985e9c5","mintToken(string,uint256,uint96,address[],uint256[])":"312dd640","name()":"06fdde03","owner()":"8da5cb5b","ownerOf(uint256)":"6352211e","renounceOwnership()":"715018a6","royaltyInfo(uint256,uint256)":"2a55205a","safeTransferFrom(address,address,uint256)":"42842e0e","safeTransferFrom(address,address,uint256,bytes)":"b88d4fde","setApprovalForAll(address,bool)":"a22cb465","supportsInterface(bytes4)":"01ffc9a7","symbol()":"95d89b41","tokenLicenses(uint256,uint256)":"194e5b5c","tokenPrices(uint256)":"e5afe3e6","tokenRevenueShares(uint256,uint256)":"e349b2ff","tokenURI(uint256)":"c87b56dd","transferFrom(address,address,uint256)":"23b872dd","transferOwnership(address)":"f2fde38b"},"id":21}