{"abi":[{"type":"constructor","inputs":[],"stateMutability":"nonpayable"},{"type":"function","name":"approve","inputs":[{"name":"to","type":"address","internalType":"address"},{"name":"tokenId","type":"uint256","internalType":"uint256"}],"outputs":[],"stateMutability":"nonpayable"},{"type":"function","name":"balanceOf","inputs":[{"name":"owner","type":"address","internalType":"address"}],"outputs":[{"name":"","type":"uint256","internalType":"uint256"}],"stateMutability":"view"},{"type":"function","name":"buyLicense","inputs":[{"name":"tokenId","type":"uint256","internalType":"uint256"}],"outputs":[],"stateMutability":"payable"},{"type":"function","name":"getApproved","inputs":[{"name":"tokenId","type":"uint256","internalType":"uint256"}],"outputs":[{"name":"","type":"address","internalType":"address"}],"stateMutability":"view"},{"type":"function","name":"getLicenses","inputs":[{"name":"tokenId","type":"uint256","internalType":"uint256"}],"outputs":[{"name":"","type":"tuple[]","internalType":"struct MusifyNFT.License[]","components":[{"name":"buyer","type":"address","internalType":"address"},{"name":"purchaseDate","type":"uint256","internalType":"uint256"},{"name":"expiryDate","type":"uint256","internalType":"uint256"}]}],"stateMutability":"view"},{"type":"function","name":"isApprovedForAll","inputs":[{"name":"owner","type":"address","internalType":"address"},{"name":"operator","type":"address","internalType":"address"}],"outputs":[{"name":"","type":"bool","internalType":"bool"}],"stateMutability":"view"},{"type":"function","name":"mintToken","inputs":[{"name":"_tokenURI","type":"string","internalType":"string"},{"name":"_price","type":"uint256","internalType":"uint256"},{"name":"_royaltyFeeNumerator","type":"uint96","internalType":"uint96"}],"outputs":[{"name":"","type":"uint256","internalType":"uint256"}],"stateMutability":"nonpayable"},{"type":"function","name":"name","inputs":[],"outputs":[{"name":"","type":"string","internalType":"string"}],"stateMutability":"view"},{"type":"function","name":"owner","inputs":[],"outputs":[{"name":"","type":"address","internalType":"address"}],"stateMutability":"view"},{"type":"function","name":"ownerOf","inputs":[{"name":"tokenId","type":"uint256","internalType":"uint256"}],"outputs":[{"name":"","type":"address","internalType":"address"}],"stateMutability":"view"},{"type":"function","name":"renounceOwnership","inputs":[],"outputs":[],"stateMutability":"nonpayable"},{"type":"function","name":"royaltyInfo","inputs":[{"name":"tokenId","type":"uint256","internalType":"uint256"},{"name":"salePrice","type":"uint256","internalType":"uint256"}],"outputs":[{"name":"receiver","type":"address","internalType":"address"},{"name":"amount","type":"uint256","internalType":"uint256"}],"stateMutability":"view"},{"type":"function","name":"safeTransferFrom","inputs":[{"name":"from","type":"address","internalType":"address"},{"name":"to","type":"address","internalType":"address"},{"name":"tokenId","type":"uint256","internalType":"uint256"}],"outputs":[],"stateMutability":"nonpayable"},{"type":"function","name":"safeTransferFrom","inputs":[{"name":"from","type":"address","internalType":"address"},{"name":"to","type":"address","internalType":"address"},{"name":"tokenId","type":"uint256","internalType":"uint256"},{"name":"data","type":"bytes","internalType":"bytes"}],"outputs":[],"stateMutability":"nonpayable"},{"type":"function","name":"setApprovalForAll","inputs":[{"name":"operator","type":"address","internalType":"address"},{"name":"approved","type":"bool","internalType":"bool"}],"outputs":[],"stateMutability":"nonpayable"},{"type":"function","name":"supportsInterface","inputs":[{"name":"interfaceId","type":"bytes4","internalType":"bytes4"}],"outputs":[{"name":"","type":"bool","internalType":"bool"}],"stateMutability":"view"},{"type":"function","name":"symbol","inputs":[],"outputs":[{"name":"","type":"string","internalType":"string"}],"stateMutability":"view"},{"type":"function","name":"tokenLicenses","inputs":[{"name":"","type":"uint256","internalType":"uint256"},{"name":"","type":"uint256","internalType":"uint256"}],"outputs":[{"name":"buyer","type":"address","internalType":"address"},{"name":"purchaseDate","type":"uint256","internalType":"uint256"},{"name":"expiryDate","type":"uint256","internalType":"uint256"}],"stateMutability":"view"},{"type":"function","name":"tokenPrices","inputs":[{"name":"","type":"uint256","internalType":"uint256"}],"outputs":[{"name":"","type":"uint256","internalType":"uint256"}],"stateMutability":"view"},{"type":"function","name":"tokenURI","inputs":[{"name":"tokenId","type":"uint256","internalType":"uint256"}],"outputs":[{"name":"","type":"string","internalType":"string"}],"stateMutability":"view"},{"type":"function","name":"transferFrom","inputs":[{"name":"from","type":"address","internalType":"address"},{"name":"to","type":"address","internalType":"address"},{"name":"tokenId","type":"uint256","internalType":"uint256"}],"outputs":[],"stateMutability":"nonpayable"},{"type":"function","name":"transferOwnership","inputs":[{"name":"newOwner","type":"address","internalType":"address"}],"outputs":[],"stateMutability":"nonpayable"},{"type":"event","name":"Approval","inputs":[{"name":"owner","type":"address","indexed":true,"internalType":"address"},{"name":"approved","type":"address","indexed":true,"internalType":"address"},{"name":"tokenId","type":"uint256","indexed":true,"internalType":"uint256"}],"anonymous":false},{"type":"event","name":"ApprovalForAll","inputs":[{"name":"owner","type":"address","indexed":true,"internalType":"address"},{"name":"operator","type":"address","indexed":true,"internalType":"address"},{"name":"approved","type":"bool","indexed":false,"internalType":"bool"}],"anonymous":false},{"type":"event","name":"BatchMetadataUpdate","inputs":[{"name":"_fromTokenId","type":"uint256","indexed":false,"internalType":"uint256"},{"name":"_toTokenId","type":"uint256","indexed":false,"internalType":"uint256"}],"anonymous":false},{"type":"event","name":"LicensePurchased","inputs":[{"name":"tokenId","type":"uint256","indexed":true,"internalType":"uint256"},{"name":"buyer","type":"address","indexed":true,"internalType":"address"},{"name":"expiryDate","type":"uint256","indexed":false,"internalType":"uint256"}],"anonymous":false},{"type":"event","name":"MetadataUpdate","inputs":[{"name":"_tokenId","type":"uint256","indexed":false,"internalType":"uint256"}],"anonymous":false},{"type":"event","name":"NftMinted","inputs":[{"name":"tokenId","type":"uint256","indexed":true,"internalType":"uint256"},{"name":"tokenURI","type":"string","indexed":false,"internalType":"string"},{"name":"creator","type":"address","indexed":true,"internalType":"address"},{"name":"price","type":"uint256","indexed":false,"internalType":"uint256"}],"anonymous":false},{"type":"event","name":"OwnershipTransferred","inputs":[{"name":"previousOwner","type":"address","indexed":true,"internalType":"address"},{"name":"newOwner","type":"address","indexed":true,"internalType":"address"}],"anonymous":false},{"type":"event","name":"Transfer","inputs":[{"name":"from","type":"address","indexed":true,"internalType":"address"},{"name":"to","type":"address","indexed":true,"internalType":"address"},{"name":"tokenId","type":"uint256","indexed":true,"internalType":"uint256"}],"anonymous":false},{"type":"error","name":"ERC2981InvalidDefaultRoyalty","inputs":[{"name":"numerator","type":"uint256","internalType":"uint256"},{"name":"denominator","type":"uint256","internalType":"uint256"}]},{"type":"error","name":"ERC2981InvalidDefaultRoyaltyReceiver","inputs":[{"name":"receiver","type":"address","internalType":"address"}]},{"type":"error","name":"ERC2981InvalidTokenRoyalty","inputs":[{"name":"tokenId","type":"uint256","internalType":"uint256"},{"name":"numerator","type":"uint256","internalType":"uint256"},{"name":"denominator","type":"uint256","internalType":"uint256"}]},{"type":"error","name":"ERC2981InvalidTokenRoyaltyReceiver","inputs":[{"name":"tokenId","type":"uint256","internalType":"uint256"},{"name":"receiver","type":"address","internalType":"address"}]},{"type":"error","name":"ERC721IncorrectOwner","inputs":[{"name":"sender","type":"address","internalType":"address"},{"name":"tokenId","type":"uint256","internalType":"uint256"},{"name":"owner","type":"address","internalType":"address"}]},{"type":"error","name":"ERC721InsufficientApproval","inputs":[{"name":"operator","type":"address","internalType":"address"},{"name":"tokenId","type":"uint256","internalType":"uint256"}]},{"type":"error","name":"ERC721InvalidApprover","inputs":[{"name":"approver","type":"address","internalType":"address"}]},{"type":"error","name":"ERC721InvalidOperator","inputs":[{"name":"operator","type":"address","internalType":"address"}]},{"type":"error","name":"ERC721InvalidOwner","inputs":[{"name":"owner","type":"address","internalType":"address"}]},{"type":"error","name":"ERC721InvalidReceiver","inputs":[{"name":"receiver","type":"address","internalType":"address"}]},{"type":"error","name":"ERC721InvalidSender","inputs":[{"name":"sender","type":"address","internalType":"address"}]},{"type":"error","name":"ERC721NonexistentToken","inputs":[{"name":"tokenId","type":"uint256","internalType":"uint256"}]},{"type":"error","name":"OwnableInvalidOwner","inputs":[{"name":"owner","type":"address","internalType":"address"}]},{"type":"error","name":"OwnableUnauthorizedAccount","inputs":[{"name":"account","type":"address","internalType":"address"}]}],"bytecode":{"object":"0x608060405234801561000f575f5ffd5b50336040518060400160405280600981526020017f4d75736966794e465400000000000000000000000000000000000000000000008152506040518060400160405280600481526020017f4d4e465400000000000000000000000000000000000000000000000000000000815250815f908161008b9190610423565b50806001908161009b9190610423565b5050505f73ffffffffffffffffffffffffffffffffffffffff168173ffffffffffffffffffffffffffffffffffffffff160361010e575f6040517f1e4fbdf70000000000000000000000000000000000000000000000000000000081526004016101059190610531565b60405180910390fd5b61011d8161012360201b60201c565b5061054a565b5f60095f9054906101000a900473ffffffffffffffffffffffffffffffffffffffff1690508160095f6101000a81548173ffffffffffffffffffffffffffffffffffffffff021916908373ffffffffffffffffffffffffffffffffffffffff1602179055508173ffffffffffffffffffffffffffffffffffffffff168173ffffffffffffffffffffffffffffffffffffffff167f8be0079c531659141344cd1fd0a4f28419497f9722a3daafe3b4186f6b6457e060405160405180910390a35050565b5f81519050919050565b7f4e487b71000000000000000000000000000000000000000000000000000000005f52604160045260245ffd5b7f4e487b71000000000000000000000000000000000000000000000000000000005f52602260045260245ffd5b5f600282049050600182168061026157607f821691505b6020821081036102745761027361021d565b5b50919050565b5f819050815f5260205f209050919050565b5f6020601f8301049050919050565b5f82821b905092915050565b5f600883026102d67fffffffffffffffffffffffffffffffffffffffffffffffffffffffffffffffff8261029b565b6102e0868361029b565b95508019841693508086168417925050509392505050565b5f819050919050565b5f819050919050565b5f61032461031f61031a846102f8565b610301565b6102f8565b9050919050565b5f819050919050565b61033d8361030a565b6103516103498261032b565b8484546102a7565b825550505050565b5f5f905090565b610368610359565b610373818484610334565b505050565b5b818110156103965761038b5f82610360565b600181019050610379565b5050565b601f8211156103db576103ac8161027a565b6103b58461028c565b810160208510156103c4578190505b6103d86103d08561028c565b830182610378565b50505b505050565b5f82821c905092915050565b5f6103fb5f19846008026103e0565b1980831691505092915050565b5f61041383836103ec565b9150826002028217905092915050565b61042c826101e6565b67ffffffffffffffff811115610445576104446101f0565b5b61044f825461024a565b61045a82828561039a565b5f60209050601f83116001811461048b575f8415610479578287015190505b6104838582610408565b8655506104ea565b601f1984166104998661027a565b5f5b828110156104c05784890151825560018201915060208501945060208101905061049b565b868310156104dd57848901516104d9601f8916826103ec565b8355505b6001600288020188555050505b505050505050565b5f73ffffffffffffffffffffffffffffffffffffffff82169050919050565b5f61051b826104f2565b9050919050565b61052b81610511565b82525050565b5f6020820190506105445f830184610522565b92915050565b6133f2806105575f395ff3fe608060405260043610610134575f3560e01c80638da5cb5b116100aa578063c87b56dd1161006e578063c87b56dd1461043b578063cae1a69c14610477578063dfde9cd714610493578063e5afe3e6146104cf578063e985e9c51461050b578063f2fde38b1461054757610134565b80638da5cb5b1461035b57806395d89b4114610385578063a22cb465146103af578063a4e6d800146103d7578063b88d4fde1461041357610134565b806323b872dd116100fc57806323b872dd146102405780632a55205a1461026857806342842e0e146102a55780636352211e146102cd57806370a0823114610309578063715018a61461034557610134565b806301ffc9a71461013857806306fdde0314610174578063081812fc1461019e578063095ea7b3146101da578063194e5b5c14610202575b5f5ffd5b348015610143575f5ffd5b5061015e600480360381019061015991906123ff565b61056f565b60405161016b9190612444565b60405180910390f35b34801561017f575f5ffd5b50610188610580565b60405161019591906124cd565b60405180910390f35b3480156101a9575f5ffd5b506101c460048036038101906101bf9190612520565b61060f565b6040516101d1919061258a565b60405180910390f35b3480156101e5575f5ffd5b5061020060048036038101906101fb91906125cd565b61062a565b005b34801561020d575f5ffd5b506102286004803603810190610223919061260b565b610640565b60405161023793929190612658565b60405180910390f35b34801561024b575f5ffd5b506102666004803603810190610261919061268d565b61069f565b005b348015610273575f5ffd5b5061028e6004803603810190610289919061260b565b61079e565b60405161029c9291906126dd565b60405180910390f35b3480156102b0575f5ffd5b506102cb60048036038101906102c6919061268d565b6108c0565b005b3480156102d8575f5ffd5b506102f360048036038101906102ee9190612520565b6108df565b604051610300919061258a565b60405180910390f35b348015610314575f5ffd5b5061032f600480360381019061032a9190612704565b6108f0565b60405161033c919061272f565b60405180910390f35b348015610350575f5ffd5b506103596109a6565b005b348015610366575f5ffd5b5061036f6109b9565b60405161037c919061258a565b60405180910390f35b348015610390575f5ffd5b506103996109e1565b6040516103a691906124cd565b60405180910390f35b3480156103ba575f5ffd5b506103d560048036038101906103d09190612772565b610a71565b005b3480156103e2575f5ffd5b506103fd60048036038101906103f89190612520565b610a87565b60405161040a91906128b6565b60405180910390f35b34801561041e575f5ffd5b5061043960048036038101906104349190612a02565b610b5c565b005b348015610446575f5ffd5b50610461600480360381019061045c9190612520565b610b81565b60405161046e91906124cd565b60405180910390f35b610491600480360381019061048c9190612520565b610b93565b005b34801561049e575f5ffd5b506104b960048036038101906104b49190612b61565b610e40565b6040516104c6919061272f565b60405180910390f35b3480156104da575f5ffd5b506104f560048036038101906104f09190612520565b610eeb565b604051610502919061272f565b60405180910390f35b348015610516575f5ffd5b50610531600480360381019061052c9190612bcd565b610f00565b60405161053e9190612444565b60405180910390f35b348015610552575f5ffd5b5061056d60048036038101906105689190612704565b610f8e565b005b5f61057982611012565b9050919050565b60605f805461058e90612c38565b80601f01602080910402602001604051908101604052809291908181526020018280546105ba90612c38565b80156106055780601f106105dc57610100808354040283529160200191610605565b820191905f5260205f20905b8154815290600101906020018083116105e857829003601f168201915b5050505050905090565b5f6106198261108b565b5061062382611111565b9050919050565b61063c828261063761114a565b611151565b5050565b600c602052815f5260405f208181548110610659575f80fd5b905f5260205f2090600302015f9150915050805f015f9054906101000a900473ffffffffffffffffffffffffffffffffffffffff16908060010154908060020154905083565b5f73ffffffffffffffffffffffffffffffffffffffff168273ffffffffffffffffffffffffffffffffffffffff160361070f575f6040517f64a0ae92000000000000000000000000000000000000000000000000000000008152600401610706919061258a565b60405180910390fd5b5f610722838361071d61114a565b611163565b90508373ffffffffffffffffffffffffffffffffffffffff168173ffffffffffffffffffffffffffffffffffffffff1614610798578382826040517f64283d7b00000000000000000000000000000000000000000000000000000000815260040161078f93929190612c68565b60405180910390fd5b50505050565b5f5f5f60085f8681526020019081526020015f2090505f815f015f9054906101000a900473ffffffffffffffffffffffffffffffffffffffff1690505f825f0160149054906101000a90046bffffffffffffffffffffffff1690505f73ffffffffffffffffffffffffffffffffffffffff168273ffffffffffffffffffffffffffffffffffffffff16036108725760075f015f9054906101000a900473ffffffffffffffffffffffffffffffffffffffff16915060075f0160149054906101000a90046bffffffffffffffffffffffff1690505b5f61087b61136e565b6bffffffffffffffffffffffff16826bffffffffffffffffffffffff16886108a39190612cca565b6108ad9190612d38565b9050828195509550505050509250929050565b6108da83838360405180602001604052805f815250610b5c565b505050565b5f6108e98261108b565b9050919050565b5f5f73ffffffffffffffffffffffffffffffffffffffff168273ffffffffffffffffffffffffffffffffffffffff1603610961575f6040517f89c62b64000000000000000000000000000000000000000000000000000000008152600401610958919061258a565b60405180910390fd5b60035f8373ffffffffffffffffffffffffffffffffffffffff1673ffffffffffffffffffffffffffffffffffffffff1681526020019081526020015f20549050919050565b6109ae611377565b6109b75f6113fe565b565b5f60095f9054906101000a900473ffffffffffffffffffffffffffffffffffffffff16905090565b6060600180546109f090612c38565b80601f0160208091040260200160405190810160405280929190818152602001828054610a1c90612c38565b8015610a675780601f10610a3e57610100808354040283529160200191610a67565b820191905f5260205f20905b815481529060010190602001808311610a4a57829003601f168201915b5050505050905090565b610a83610a7c61114a565b83836114c1565b5050565b6060600c5f8381526020019081526020015f20805480602002602001604051908101604052809291908181526020015f905b82821015610b51578382905f5260205f2090600302016040518060600160405290815f82015f9054906101000a900473ffffffffffffffffffffffffffffffffffffffff1673ffffffffffffffffffffffffffffffffffffffff1673ffffffffffffffffffffffffffffffffffffffff1681526020016001820154815260200160028201548152505081526020019060010190610ab9565b505050509050919050565b610b6784848461069f565b610b7b610b7261114a565b8585858561162a565b50505050565b6060610b8c826117d6565b9050919050565b5f600b5f8381526020019081526020015f2054905080341015610beb576040517f08c379a0000000000000000000000000000000000000000000000000000000008152600401610be290612db2565b60405180910390fd5b5f73ffffffffffffffffffffffffffffffffffffffff16610c0b836108df565b73ffffffffffffffffffffffffffffffffffffffff1603610c61576040517f08c379a0000000000000000000000000000000000000000000000000000000008152600401610c5890612e1a565b60405180910390fd5b5f610c6b836108df565b90505f8173ffffffffffffffffffffffffffffffffffffffff1634604051610c9290612e65565b5f6040518083038185875af1925050503d805f8114610ccc576040519150601f19603f3d011682016040523d82523d5f602084013e610cd1565b606091505b5050905080610d15576040517f08c379a0000000000000000000000000000000000000000000000000000000008152600401610d0c90612ec3565b60405180910390fd5b5f6301e1338042610d269190612ee1565b9050600c5f8681526020019081526020015f2060405180606001604052803373ffffffffffffffffffffffffffffffffffffffff16815260200142815260200183815250908060018154018082558091505060019003905f5260205f2090600302015f909190919091505f820151815f015f6101000a81548173ffffffffffffffffffffffffffffffffffffffff021916908373ffffffffffffffffffffffffffffffffffffffff160217905550602082015181600101556040820151816002015550503373ffffffffffffffffffffffffffffffffffffffff16857f3393c806682127c43571a575f4325897853625aeba0737802669e195f4520d5f83604051610e31919061272f565b60405180910390a35050505050565b5f5f600a5f815480929190610e5490612f14565b919050559050610e6433826118e1565b610e6e81866119d4565b83600b5f8381526020019081526020015f2081905550610e8f813385611a2e565b3373ffffffffffffffffffffffffffffffffffffffff16817fd6316c1a2bb7873d05d64fff5e7e96fc79b424417c4ffa5f7807c7687c0bc21e8787604051610ed8929190612f5b565b60405180910390a3809150509392505050565b600b602052805f5260405f205f915090505481565b5f60055f8473ffffffffffffffffffffffffffffffffffffffff1673ffffffffffffffffffffffffffffffffffffffff1681526020019081526020015f205f8373ffffffffffffffffffffffffffffffffffffffff1673ffffffffffffffffffffffffffffffffffffffff1681526020019081526020015f205f9054906101000a900460ff16905092915050565b610f96611377565b5f73ffffffffffffffffffffffffffffffffffffffff168173ffffffffffffffffffffffffffffffffffffffff1603611006575f6040517f1e4fbdf7000000000000000000000000000000000000000000000000000000008152600401610ffd919061258a565b60405180910390fd5b61100f816113fe565b50565b5f7f2a55205a000000000000000000000000000000000000000000000000000000007bffffffffffffffffffffffffffffffffffffffffffffffffffffffff1916827bffffffffffffffffffffffffffffffffffffffffffffffffffffffff19161480611084575061108382611bdd565b5b9050919050565b5f5f61109683611c3d565b90505f73ffffffffffffffffffffffffffffffffffffffff168173ffffffffffffffffffffffffffffffffffffffff160361110857826040517f7e2732890000000000000000000000000000000000000000000000000000000081526004016110ff919061272f565b60405180910390fd5b80915050919050565b5f60045f8381526020019081526020015f205f9054906101000a900473ffffffffffffffffffffffffffffffffffffffff169050919050565b5f33905090565b61115e8383836001611c76565b505050565b5f5f61116e84611c3d565b90505f73ffffffffffffffffffffffffffffffffffffffff168373ffffffffffffffffffffffffffffffffffffffff16146111af576111ae818486611e35565b5b5f73ffffffffffffffffffffffffffffffffffffffff168173ffffffffffffffffffffffffffffffffffffffff161461123a576111ee5f855f5f611c76565b600160035f8373ffffffffffffffffffffffffffffffffffffffff1673ffffffffffffffffffffffffffffffffffffffff1681526020019081526020015f205f82825403925050819055505b5f73ffffffffffffffffffffffffffffffffffffffff168573ffffffffffffffffffffffffffffffffffffffff16146112b957600160035f8773ffffffffffffffffffffffffffffffffffffffff1673ffffffffffffffffffffffffffffffffffffffff1681526020019081526020015f205f82825401925050819055505b8460025f8681526020019081526020015f205f6101000a81548173ffffffffffffffffffffffffffffffffffffffff021916908373ffffffffffffffffffffffffffffffffffffffff160217905550838573ffffffffffffffffffffffffffffffffffffffff168273ffffffffffffffffffffffffffffffffffffffff167fddf252ad1be2c89b69c2b068fc378daa952ba7f163c4a11628f55a4df523b3ef60405160405180910390a4809150509392505050565b5f612710905090565b61137f61114a565b73ffffffffffffffffffffffffffffffffffffffff1661139d6109b9565b73ffffffffffffffffffffffffffffffffffffffff16146113fc576113c061114a565b6040517f118cdaa70000000000000000000000000000000000000000000000000000000081526004016113f3919061258a565b60405180910390fd5b565b5f60095f9054906101000a900473ffffffffffffffffffffffffffffffffffffffff1690508160095f6101000a81548173ffffffffffffffffffffffffffffffffffffffff021916908373ffffffffffffffffffffffffffffffffffffffff1602179055508173ffffffffffffffffffffffffffffffffffffffff168173ffffffffffffffffffffffffffffffffffffffff167f8be0079c531659141344cd1fd0a4f28419497f9722a3daafe3b4186f6b6457e060405160405180910390a35050565b5f73ffffffffffffffffffffffffffffffffffffffff168273ffffffffffffffffffffffffffffffffffffffff160361153157816040517f5b08ba18000000000000000000000000000000000000000000000000000000008152600401611528919061258a565b60405180910390fd5b8060055f8573ffffffffffffffffffffffffffffffffffffffff1673ffffffffffffffffffffffffffffffffffffffff1681526020019081526020015f205f8473ffffffffffffffffffffffffffffffffffffffff1673ffffffffffffffffffffffffffffffffffffffff1681526020019081526020015f205f6101000a81548160ff0219169083151502179055508173ffffffffffffffffffffffffffffffffffffffff168373ffffffffffffffffffffffffffffffffffffffff167f17307eab39ab6107e8899845ad3d59bd9653f200f220920489ca2b5937696c318360405161161d9190612444565b60405180910390a3505050565b5f8373ffffffffffffffffffffffffffffffffffffffff163b11156117cf578273ffffffffffffffffffffffffffffffffffffffff1663150b7a02868685856040518563ffffffff1660e01b81526004016116889493929190612fdb565b6020604051808303815f875af19250505080156116c357506040513d601f19601f820116820180604052508101906116c09190613039565b60015b611744573d805f81146116f1576040519150601f19603f3d011682016040523d82523d5f602084013e6116f6565b606091505b505f81510361173c57836040517f64a0ae92000000000000000000000000000000000000000000000000000000008152600401611733919061258a565b60405180910390fd5b805160208201fd5b63150b7a0260e01b7bffffffffffffffffffffffffffffffffffffffffffffffffffffffff1916817bffffffffffffffffffffffffffffffffffffffffffffffffffffffff1916146117cd57836040517f64a0ae920000000000000000000000000000000000000000000000000000000081526004016117c4919061258a565b60405180910390fd5b505b5050505050565b60606117e18261108b565b505f60065f8481526020019081526020015f2080546117ff90612c38565b80601f016020809104026020016040519081016040528092919081815260200182805461182b90612c38565b80156118765780601f1061184d57610100808354040283529160200191611876565b820191905f5260205f20905b81548152906001019060200180831161185957829003601f168201915b505050505090505f611886611ef8565b90505f81510361189a5781925050506118dc565b5f825111156118ce5780826040516020016118b692919061309e565b604051602081830303815290604052925050506118dc565b6118d784611f0e565b925050505b919050565b5f73ffffffffffffffffffffffffffffffffffffffff168273ffffffffffffffffffffffffffffffffffffffff1603611951575f6040517f64a0ae92000000000000000000000000000000000000000000000000000000008152600401611948919061258a565b60405180910390fd5b5f61195d83835f611163565b90505f73ffffffffffffffffffffffffffffffffffffffff168173ffffffffffffffffffffffffffffffffffffffff16146119cf575f6040517f73c6ac6e0000000000000000000000000000000000000000000000000000000081526004016119c6919061258a565b60405180910390fd5b505050565b8060065f8481526020019081526020015f2090816119f29190613261565b507ff8e1a15aba9398e019f0b49df1a4fde98ee17ae345cb5f6b5e2c27f5033e8ce782604051611a22919061272f565b60405180910390a15050565b5f611a3761136e565b6bffffffffffffffffffffffff16905080826bffffffffffffffffffffffff161115611a9e578382826040517fdfd1fc1b000000000000000000000000000000000000000000000000000000008152600401611a9593929190613360565b60405180910390fd5b5f73ffffffffffffffffffffffffffffffffffffffff168373ffffffffffffffffffffffffffffffffffffffff1603611b1057835f6040517f969f0852000000000000000000000000000000000000000000000000000000008152600401611b07929190613395565b60405180910390fd5b60405180604001604052808473ffffffffffffffffffffffffffffffffffffffff168152602001836bffffffffffffffffffffffff1681525060085f8681526020019081526020015f205f820151815f015f6101000a81548173ffffffffffffffffffffffffffffffffffffffff021916908373ffffffffffffffffffffffffffffffffffffffff1602179055506020820151815f0160146101000a8154816bffffffffffffffffffffffff02191690836bffffffffffffffffffffffff16021790555090505050505050565b5f634906490660e01b7bffffffffffffffffffffffffffffffffffffffffffffffffffffffff1916827bffffffffffffffffffffffffffffffffffffffffffffffffffffffff19161480611c365750611c3582611f74565b5b9050919050565b5f60025f8381526020019081526020015f205f9054906101000a900473ffffffffffffffffffffffffffffffffffffffff169050919050565b8080611cae57505f73ffffffffffffffffffffffffffffffffffffffff168273ffffffffffffffffffffffffffffffffffffffff1614155b15611de0575f611cbd8461108b565b90505f73ffffffffffffffffffffffffffffffffffffffff168373ffffffffffffffffffffffffffffffffffffffff1614158015611d2757508273ffffffffffffffffffffffffffffffffffffffff168173ffffffffffffffffffffffffffffffffffffffff1614155b8015611d3a5750611d388184610f00565b155b15611d7c57826040517fa9fbf51f000000000000000000000000000000000000000000000000000000008152600401611d73919061258a565b60405180910390fd5b8115611dde57838573ffffffffffffffffffffffffffffffffffffffff168273ffffffffffffffffffffffffffffffffffffffff167f8c5be1e5ebec7d5bd14f71427d1e84f3dd0314c0f7b2291e5b200ac8c7c3b92560405160405180910390a45b505b8360045f8581526020019081526020015f205f6101000a81548173ffffffffffffffffffffffffffffffffffffffff021916908373ffffffffffffffffffffffffffffffffffffffff16021790555050505050565b611e40838383612055565b611ef3575f73ffffffffffffffffffffffffffffffffffffffff168373ffffffffffffffffffffffffffffffffffffffff1603611eb457806040517f7e273289000000000000000000000000000000000000000000000000000000008152600401611eab919061272f565b60405180910390fd5b81816040517f177e802f000000000000000000000000000000000000000000000000000000008152600401611eea9291906126dd565b60405180910390fd5b505050565b606060405180602001604052805f815250905090565b6060611f198261108b565b505f611f23611ef8565b90505f815111611f415760405180602001604052805f815250611f6c565b80611f4b84612115565b604051602001611f5c92919061309e565b6040516020818303038152906040525b915050919050565b5f7f80ac58cd000000000000000000000000000000000000000000000000000000007bffffffffffffffffffffffffffffffffffffffffffffffffffffffff1916827bffffffffffffffffffffffffffffffffffffffffffffffffffffffff1916148061203e57507f5b5e139f000000000000000000000000000000000000000000000000000000007bffffffffffffffffffffffffffffffffffffffffffffffffffffffff1916827bffffffffffffffffffffffffffffffffffffffffffffffffffffffff1916145b8061204e575061204d826121df565b5b9050919050565b5f5f73ffffffffffffffffffffffffffffffffffffffff168373ffffffffffffffffffffffffffffffffffffffff161415801561210c57508273ffffffffffffffffffffffffffffffffffffffff168473ffffffffffffffffffffffffffffffffffffffff1614806120cd57506120cc8484610f00565b5b8061210b57508273ffffffffffffffffffffffffffffffffffffffff166120f383611111565b73ffffffffffffffffffffffffffffffffffffffff16145b5b90509392505050565b60605f600161212384612248565b0190505f8167ffffffffffffffff811115612141576121406128de565b5b6040519080825280601f01601f1916602001820160405280156121735781602001600182028036833780820191505090505b5090505f82602083010190505b6001156121d4578080600190039150507f3031323334353637383961626364656600000000000000000000000000000000600a86061a8153600a85816121c9576121c8612d0b565b5b0494505f8503612180575b819350505050919050565b5f7f01ffc9a7000000000000000000000000000000000000000000000000000000007bffffffffffffffffffffffffffffffffffffffffffffffffffffffff1916827bffffffffffffffffffffffffffffffffffffffffffffffffffffffff1916149050919050565b5f5f5f90507a184f03e93ff9f4daa797ed6e38ed64bf6a1f01000000000000000083106122a4577a184f03e93ff9f4daa797ed6e38ed64bf6a1f010000000000000000838161229a57612299612d0b565b5b0492506040810190505b6d04ee2d6d415b85acef810000000083106122e1576d04ee2d6d415b85acef810000000083816122d7576122d6612d0b565b5b0492506020810190505b662386f26fc10000831061231057662386f26fc10000838161230657612305612d0b565b5b0492506010810190505b6305f5e1008310612339576305f5e100838161232f5761232e612d0b565b5b0492506008810190505b612710831061235e57612710838161235457612353612d0b565b5b0492506004810190505b60648310612381576064838161237757612376612d0b565b5b0492506002810190505b600a8310612390576001810190505b80915050919050565b5f604051905090565b5f5ffd5b5f5ffd5b5f7fffffffff0000000000000000000000000000000000000000000000000000000082169050919050565b6123de816123aa565b81146123e8575f5ffd5b50565b5f813590506123f9816123d5565b92915050565b5f60208284031215612414576124136123a2565b5b5f612421848285016123eb565b91505092915050565b5f8115159050919050565b61243e8161242a565b82525050565b5f6020820190506124575f830184612435565b92915050565b5f81519050919050565b5f82825260208201905092915050565b8281835e5f83830152505050565b5f601f19601f8301169050919050565b5f61249f8261245d565b6124a98185612467565b93506124b9818560208601612477565b6124c281612485565b840191505092915050565b5f6020820190508181035f8301526124e58184612495565b905092915050565b5f819050919050565b6124ff816124ed565b8114612509575f5ffd5b50565b5f8135905061251a816124f6565b92915050565b5f60208284031215612535576125346123a2565b5b5f6125428482850161250c565b91505092915050565b5f73ffffffffffffffffffffffffffffffffffffffff82169050919050565b5f6125748261254b565b9050919050565b6125848161256a565b82525050565b5f60208201905061259d5f83018461257b565b92915050565b6125ac8161256a565b81146125b6575f5ffd5b50565b5f813590506125c7816125a3565b92915050565b5f5f604083850312156125e3576125e26123a2565b5b5f6125f0858286016125b9565b92505060206126018582860161250c565b9150509250929050565b5f5f60408385031215612621576126206123a2565b5b5f61262e8582860161250c565b925050602061263f8582860161250c565b9150509250929050565b612652816124ed565b82525050565b5f60608201905061266b5f83018661257b565b6126786020830185612649565b6126856040830184612649565b949350505050565b5f5f5f606084860312156126a4576126a36123a2565b5b5f6126b1868287016125b9565b93505060206126c2868287016125b9565b92505060406126d38682870161250c565b9150509250925092565b5f6040820190506126f05f83018561257b565b6126fd6020830184612649565b9392505050565b5f60208284031215612719576127186123a2565b5b5f612726848285016125b9565b91505092915050565b5f6020820190506127425f830184612649565b92915050565b6127518161242a565b811461275b575f5ffd5b50565b5f8135905061276c81612748565b92915050565b5f5f60408385031215612788576127876123a2565b5b5f612795858286016125b9565b92505060206127a68582860161275e565b9150509250929050565b5f81519050919050565b5f82825260208201905092915050565b5f819050602082019050919050565b6127e28161256a565b82525050565b6127f1816124ed565b82525050565b606082015f82015161280b5f8501826127d9565b50602082015161281e60208501826127e8565b50604082015161283160408501826127e8565b50505050565b5f61284283836127f7565b60608301905092915050565b5f602082019050919050565b5f612864826127b0565b61286e81856127ba565b9350612879836127ca565b805f5b838110156128a95781516128908882612837565b975061289b8361284e565b92505060018101905061287c565b5085935050505092915050565b5f6020820190508181035f8301526128ce818461285a565b905092915050565b5f5ffd5b5f5ffd5b7f4e487b71000000000000000000000000000000000000000000000000000000005f52604160045260245ffd5b61291482612485565b810181811067ffffffffffffffff82111715612933576129326128de565b5b80604052505050565b5f612945612399565b9050612951828261290b565b919050565b5f67ffffffffffffffff8211156129705761296f6128de565b5b61297982612485565b9050602081019050919050565b828183375f83830152505050565b5f6129a66129a184612956565b61293c565b9050828152602081018484840111156129c2576129c16128da565b5b6129cd848285612986565b509392505050565b5f82601f8301126129e9576129e86128d6565b5b81356129f9848260208601612994565b91505092915050565b5f5f5f5f60808587031215612a1a57612a196123a2565b5b5f612a27878288016125b9565b9450506020612a38878288016125b9565b9350506040612a498782880161250c565b925050606085013567ffffffffffffffff811115612a6a57612a696123a6565b5b612a76878288016129d5565b91505092959194509250565b5f67ffffffffffffffff821115612a9c57612a9b6128de565b5b612aa582612485565b9050602081019050919050565b5f612ac4612abf84612a82565b61293c565b905082815260208101848484011115612ae057612adf6128da565b5b612aeb848285612986565b509392505050565b5f82601f830112612b0757612b066128d6565b5b8135612b17848260208601612ab2565b91505092915050565b5f6bffffffffffffffffffffffff82169050919050565b612b4081612b20565b8114612b4a575f5ffd5b50565b5f81359050612b5b81612b37565b92915050565b5f5f5f60608486031215612b7857612b776123a2565b5b5f84013567ffffffffffffffff811115612b9557612b946123a6565b5b612ba186828701612af3565b9350506020612bb28682870161250c565b9250506040612bc386828701612b4d565b9150509250925092565b5f5f60408385031215612be357612be26123a2565b5b5f612bf0858286016125b9565b9250506020612c01858286016125b9565b9150509250929050565b7f4e487b71000000000000000000000000000000000000000000000000000000005f52602260045260245ffd5b5f6002820490506001821680612c4f57607f821691505b602082108103612c6257612c61612c0b565b5b50919050565b5f606082019050612c7b5f83018661257b565b612c886020830185612649565b612c95604083018461257b565b949350505050565b7f4e487b71000000000000000000000000000000000000000000000000000000005f52601160045260245ffd5b5f612cd4826124ed565b9150612cdf836124ed565b9250828202612ced816124ed565b91508282048414831517612d0457612d03612c9d565b5b5092915050565b7f4e487b71000000000000000000000000000000000000000000000000000000005f52601260045260245ffd5b5f612d42826124ed565b9150612d4d836124ed565b925082612d5d57612d5c612d0b565b5b828204905092915050565b7f496e73756666696369656e74207061796d656e740000000000000000000000005f82015250565b5f612d9c601483612467565b9150612da782612d68565b602082019050919050565b5f6020820190508181035f830152612dc981612d90565b9050919050565b7f546f6b656e20646f6573206e6f742065786973740000000000000000000000005f82015250565b5f612e04601483612467565b9150612e0f82612dd0565b602082019050919050565b5f6020820190508181035f830152612e3181612df8565b9050919050565b5f81905092915050565b50565b5f612e505f83612e38565b9150612e5b82612e42565b5f82019050919050565b5f612e6f82612e45565b9150819050919050565b7f5472616e73666572206661696c656400000000000000000000000000000000005f82015250565b5f612ead600f83612467565b9150612eb882612e79565b602082019050919050565b5f6020820190508181035f830152612eda81612ea1565b9050919050565b5f612eeb826124ed565b9150612ef6836124ed565b9250828201905080821115612f0e57612f0d612c9d565b5b92915050565b5f612f1e826124ed565b91507fffffffffffffffffffffffffffffffffffffffffffffffffffffffffffffffff8203612f5057612f4f612c9d565b5b600182019050919050565b5f6040820190508181035f830152612f738185612495565b9050612f826020830184612649565b9392505050565b5f81519050919050565b5f82825260208201905092915050565b5f612fad82612f89565b612fb78185612f93565b9350612fc7818560208601612477565b612fd081612485565b840191505092915050565b5f608082019050612fee5f83018761257b565b612ffb602083018661257b565b6130086040830185612649565b818103606083015261301a8184612fa3565b905095945050505050565b5f81519050613033816123d5565b92915050565b5f6020828403121561304e5761304d6123a2565b5b5f61305b84828501613025565b91505092915050565b5f81905092915050565b5f6130788261245d565b6130828185613064565b9350613092818560208601612477565b80840191505092915050565b5f6130a9828561306e565b91506130b5828461306e565b91508190509392505050565b5f819050815f5260205f209050919050565b5f6020601f8301049050919050565b5f82821b905092915050565b5f6008830261311d7fffffffffffffffffffffffffffffffffffffffffffffffffffffffffffffffff826130e2565b61312786836130e2565b95508019841693508086168417925050509392505050565b5f819050919050565b5f61316261315d613158846124ed565b61313f565b6124ed565b9050919050565b5f819050919050565b61317b83613148565b61318f61318782613169565b8484546130ee565b825550505050565b5f5f905090565b6131a6613197565b6131b1818484613172565b505050565b5b818110156131d4576131c95f8261319e565b6001810190506131b7565b5050565b601f821115613219576131ea816130c1565b6131f3846130d3565b81016020851015613202578190505b61321661320e856130d3565b8301826131b6565b50505b505050565b5f82821c905092915050565b5f6132395f198460080261321e565b1980831691505092915050565b5f613251838361322a565b9150826002028217905092915050565b61326a8261245d565b67ffffffffffffffff811115613283576132826128de565b5b61328d8254612c38565b6132988282856131d8565b5f60209050601f8311600181146132c9575f84156132b7578287015190505b6132c18582613246565b865550613328565b601f1984166132d7866130c1565b5f5b828110156132fe578489015182556001820191506020850194506020810190506132d9565b8683101561331b5784890151613317601f89168261322a565b8355505b6001600288020188555050505b505050505050565b5f61334a61334561334084612b20565b61313f565b6124ed565b9050919050565b61335a81613330565b82525050565b5f6060820190506133735f830186612649565b6133806020830185613351565b61338d6040830184612649565b949350505050565b5f6040820190506133a85f830185612649565b6133b5602083018461257b565b939250505056fea26469706673582212204d18ecaac7273afaab94822c00e16383cf15c4373983dc15523782832561667c64736f6c634300081b0033","linkReferences":{}},"methodIdentifiers":{"approve(address,uint256)":"095ea7b3","balanceOf(address)":"70a08231","buyLicense(uint256)":"cae1a69c","getApproved(uint256)":"081812fc","getLicenses(uint256)":"a4e6d800","isApprovedForAll(address,address)":"e985e9c5","mintToken(string,uint256,uint96)":"dfde9cd7","name()":"06fdde03","owner()":"8da5cb5b","ownerOf(uint256)":"6352211e","renounceOwnership()":"715018a6","royaltyInfo(uint256,uint256)":"2a55205a","safeTransferFrom(address,address,uint256)":"42842e0e","safeTransferFrom(address,address,uint256,bytes)":"b88d4fde","setApprovalForAll(address,bool)":"a22cb465","supportsInterface(bytes4)":"01ffc9a7","symbol()":"95d89b41","tokenLicenses(uint256,uint256)":"194e5b5c","tokenPrices(uint256)":"e5afe3e6","tokenURI(uint256)":"c87b56dd","transferFrom(address,address,uint256)":"23b872dd","transferOwnership(address)":"f2fde38b"},"id":40}